{
  "contractName": "AdminContract",
  "abi": [
    {
      "anonymous": false,
      "inputs": [
        {
          "indexed": true,
          "internalType": "string",
          "name": "walletAddress",
          "type": "string"
        },
        {
          "indexed": false,
          "internalType": "string",
          "name": "name",
          "type": "string"
        }
      ],
      "name": "AdminAdded",
      "type": "event"
    },
    {
      "anonymous": false,
      "inputs": [
        {
          "indexed": true,
          "internalType": "string",
          "name": "walletAddress",
          "type": "string"
        }
      ],
      "name": "AdminUpdated",
      "type": "event"
    },
    {
      "inputs": [
        {
          "internalType": "string",
          "name": "",
          "type": "string"
        }
      ],
      "name": "admins",
      "outputs": [
        {
          "internalType": "bool",
          "name": "isRegistered",
          "type": "bool"
        },
        {
          "internalType": "string",
          "name": "name",
          "type": "string"
        },
        {
          "internalType": "string",
          "name": "walletAddress",
          "type": "string"
        },
        {
          "internalType": "string",
          "name": "hashPassword",
          "type": "string"
        }
      ],
      "stateMutability": "view",
      "type": "function"
    },
    {
      "inputs": [
        {
          "internalType": "string",
          "name": "_name",
          "type": "string"
        },
        {
          "internalType": "string",
          "name": "_walletAddress",
          "type": "string"
        },
        {
          "internalType": "string",
          "name": "_hashPassword",
          "type": "string"
        }
      ],
      "name": "addAdmin",
      "outputs": [],
      "stateMutability": "nonpayable",
      "type": "function"
    },
    {
      "inputs": [
        {
          "internalType": "string",
          "name": "_walletAddress",
          "type": "string"
        },
        {
          "internalType": "string",
          "name": "_name",
          "type": "string"
        },
        {
          "internalType": "string",
          "name": "_hashPassword",
          "type": "string"
        }
      ],
      "name": "updateAdmin",
      "outputs": [],
      "stateMutability": "nonpayable",
      "type": "function"
    },
    {
      "inputs": [
        {
          "internalType": "string",
          "name": "_walletAddress",
          "type": "string"
        }
      ],
      "name": "getAdminInfoByWallet",
      "outputs": [
        {
          "internalType": "string",
          "name": "name",
          "type": "string"
        },
        {
          "internalType": "string",
          "name": "walletAddress",
          "type": "string"
        },
        {
          "internalType": "string",
          "name": "hashPassword",
          "type": "string"
        }
      ],
      "stateMutability": "view",
      "type": "function"
    },
    {
      "inputs": [
        {
          "internalType": "string",
          "name": "_walletAddress",
          "type": "string"
        }
      ],
      "name": "isAdminRegistered",
      "outputs": [
        {
          "internalType": "bool",
          "name": "",
          "type": "bool"
        }
      ],
      "stateMutability": "view",
      "type": "function"
    }
  ],
  "bytecode": "0x608060405234801561001057600080fd5b506110de806100206000396000f3fe608060405234801561001057600080fd5b50600436106100575760003560e01c80635f778d251461005c57806392571da714610078578063926d7eb0146100aa5780639c0585b0146100dd578063dc4db7c01461010d575b600080fd5b61007660048036038101906100719190610996565b610129565b005b610092600480360381019061008d9190610a3d565b610277565b6040516100a193929190610b05565b60405180910390f35b6100c460048036038101906100bf9190610a3d565b6104ac565b6040516100d49493929190610b6c565b60405180910390f35b6100f760048036038101906100f29190610a3d565b610697565b6040516101049190610bc6565b60405180910390f35b61012760048036038101906101229190610996565b6106ce565b005b8260008160405161013a9190610c1d565b908152602001604051809103902060000160009054906101000a900460ff16610198576040517f08c379a000000000000000000000000000000000000000000000000000000000815260040161018f90610c80565b60405180910390fd5b600080856040516101a99190610c1d565b908152602001604051809103902090508060000160009054906101000a900460ff1661020a576040517f08c379a000000000000000000000000000000000000000000000000000000000815260040161020190610d12565b60405180910390fd5b8381600101908161021b9190610f48565b508281600301908161022d9190610f48565b508460405161023c9190610c1d565b60405180910390207f911a39539b48be62f6db9eed7467ecdd89edd1a4dc18e17b2a894837e8878f0960405160405180910390a25050505050565b60608060606000808560405161028d9190610c1d565b908152602001604051809103902090508060000160009054906101000a900460ff166102ee576040517f08c379a00000000000000000000000000000000000000000000000000000000081526004016102e590610d12565b60405180910390fd5b80600101816002018260030182805461030690610d61565b80601f016020809104026020016040519081016040528092919081815260200182805461033290610d61565b801561037f5780601f106103545761010080835404028352916020019161037f565b820191906000526020600020905b81548152906001019060200180831161036257829003601f168201915b5050505050925081805461039290610d61565b80601f01602080910402602001604051908101604052809291908181526020018280546103be90610d61565b801561040b5780601f106103e05761010080835404028352916020019161040b565b820191906000526020600020905b8154815290600101906020018083116103ee57829003601f168201915b5050505050915080805461041e90610d61565b80601f016020809104026020016040519081016040528092919081815260200182805461044a90610d61565b80156104975780601f1061046c57610100808354040283529160200191610497565b820191906000526020600020905b81548152906001019060200180831161047a57829003601f168201915b50505050509050935093509350509193909250565b6000818051602081018201805184825260208301602085012081835280955050505050506000915090508060000160009054906101000a900460ff16908060010180546104f890610d61565b80601f016020809104026020016040519081016040528092919081815260200182805461052490610d61565b80156105715780601f1061054657610100808354040283529160200191610571565b820191906000526020600020905b81548152906001019060200180831161055457829003601f168201915b50505050509080600201805461058690610d61565b80601f01602080910402602001604051908101604052809291908181526020018280546105b290610d61565b80156105ff5780601f106105d4576101008083540402835291602001916105ff565b820191906000526020600020905b8154815290600101906020018083116105e257829003601f168201915b50505050509080600301805461061490610d61565b80601f016020809104026020016040519081016040528092919081815260200182805461064090610d61565b801561068d5780601f106106625761010080835404028352916020019161068d565b820191906000526020600020905b81548152906001019060200180831161067057829003601f168201915b5050505050905084565b600080826040516106a89190610c1d565b908152602001604051809103902060000160009054906101000a900460ff169050919050565b6000826040516106de9190610c1d565b908152602001604051809103902060000160009054906101000a900460ff161561073d576040517f08c379a000000000000000000000000000000000000000000000000000000000815260040161073490611066565b60405180910390fd5b60006040518060800160405280600115158152602001858152602001848152602001838152509050806000846040516107769190610c1d565b908152602001604051809103902060008201518160000160006101000a81548160ff02191690831515021790555060208201518160010190816107b99190610f48565b5060408201518160020190816107cf9190610f48565b5060608201518160030190816107e59190610f48565b50905050826040516107f79190610c1d565b60405180910390207f40e8eb91792bd2b5ca4b1141d2b0eccb9038230e5730b4726978f7aef8a23ac58560405161082e9190611086565b60405180910390a250505050565b6000604051905090565b600080fd5b600080fd5b600080fd5b600080fd5b6000601f19601f8301169050919050565b7f4e487b7100000000000000000000000000000000000000000000000000000000600052604160045260246000fd5b6108a38261085a565b810181811067ffffffffffffffff821117156108c2576108c161086b565b5b80604052505050565b60006108d561083c565b90506108e1828261089a565b919050565b600067ffffffffffffffff8211156109015761090061086b565b5b61090a8261085a565b9050602081019050919050565b82818337600083830152505050565b6000610939610934846108e6565b6108cb565b90508281526020810184848401111561095557610954610855565b5b610960848285610917565b509392505050565b600082601f83011261097d5761097c610850565b5b813561098d848260208601610926565b91505092915050565b6000806000606084860312156109af576109ae610846565b5b600084013567ffffffffffffffff8111156109cd576109cc61084b565b5b6109d986828701610968565b935050602084013567ffffffffffffffff8111156109fa576109f961084b565b5b610a0686828701610968565b925050604084013567ffffffffffffffff811115610a2757610a2661084b565b5b610a3386828701610968565b9150509250925092565b600060208284031215610a5357610a52610846565b5b600082013567ffffffffffffffff811115610a7157610a7061084b565b5b610a7d84828501610968565b91505092915050565b600081519050919050565b600082825260208201905092915050565b60005b83811015610ac0578082015181840152602081019050610aa5565b60008484015250505050565b6000610ad782610a86565b610ae18185610a91565b9350610af1818560208601610aa2565b610afa8161085a565b840191505092915050565b60006060820190508181036000830152610b1f8186610acc565b90508181036020830152610b338185610acc565b90508181036040830152610b478184610acc565b9050949350505050565b60008115159050919050565b610b6681610b51565b82525050565b6000608082019050610b816000830187610b5d565b8181036020830152610b938186610acc565b90508181036040830152610ba78185610acc565b90508181036060830152610bbb8184610acc565b905095945050505050565b6000602082019050610bdb6000830184610b5d565b92915050565b600081905092915050565b6000610bf782610a86565b610c018185610be1565b9350610c11818560208601610aa2565b80840191505092915050565b6000610c298284610bec565b915081905092915050565b7f4e6f74206120726567697374657265642061646d696e00000000000000000000600082015250565b6000610c6a601683610a91565b9150610c7582610c34565b602082019050919050565b60006020820190508181036000830152610c9981610c5d565b9050919050565b7f41646d696e207769746820746869732077616c6c65742061646472657373206e60008201527f6f7420666f756e64000000000000000000000000000000000000000000000000602082015250565b6000610cfc602883610a91565b9150610d0782610ca0565b604082019050919050565b60006020820190508181036000830152610d2b81610cef565b9050919050565b7f4e487b7100000000000000000000000000000000000000000000000000000000600052602260045260246000fd5b60006002820490506001821680610d7957607f821691505b602082108103610d8c57610d8b610d32565b5b50919050565b60008190508160005260206000209050919050565b60006020601f8301049050919050565b600082821b905092915050565b600060088302610df47fffffffffffffffffffffffffffffffffffffffffffffffffffffffffffffffff82610db7565b610dfe8683610db7565b95508019841693508086168417925050509392505050565b6000819050919050565b6000819050919050565b6000610e45610e40610e3b84610e16565b610e20565b610e16565b9050919050565b6000819050919050565b610e5f83610e2a565b610e73610e6b82610e4c565b848454610dc4565b825550505050565b600090565b610e88610e7b565b610e93818484610e56565b505050565b5b81811015610eb757610eac600082610e80565b600181019050610e99565b5050565b601f821115610efc57610ecd81610d92565b610ed684610da7565b81016020851015610ee5578190505b610ef9610ef185610da7565b830182610e98565b50505b505050565b600082821c905092915050565b6000610f1f60001984600802610f01565b1980831691505092915050565b6000610f388383610f0e565b9150826002028217905092915050565b610f5182610a86565b67ffffffffffffffff811115610f6a57610f6961086b565b5b610f748254610d61565b610f7f828285610ebb565b600060209050601f831160018114610fb25760008415610fa0578287015190505b610faa8582610f2c565b865550611012565b601f198416610fc086610d92565b60005b82811015610fe857848901518255600182019150602085019450602081019050610fc3565b868310156110055784890151611001601f891682610f0e565b8355505b6001600288020188555050505b505050505050565b7f41646d696e20616c726561647920726567697374657265640000000000000000600082015250565b6000611050601883610a91565b915061105b8261101a565b602082019050919050565b6000602082019050818103600083015261107f81611043565b9050919050565b600060208201905081810360008301526110a08184610acc565b90509291505056fea2646970667358221220777544f6a2580f9e6676f941163dc522eb2882d28823c445e0bbfafec8a3cc3964736f6c63430008130033",
  "immutableReferences": {},
  "source": "// SPDX-License-Identifier: MIT\r\npragma solidity ^0.8.19;\r\n\r\n\r\ncontract AdminContract {\r\n\r\n    // Admin Struct\r\n    struct Admin {\r\n        bool isRegistered;\r\n        string name;\r\n        string walletAddress;  // The wallet address of the admin (string)\r\n        string hashPassword;\r\n    }\r\n\r\n    // Mapping to store admin data, using walletAddress (string) as the key\r\n    mapping(string => Admin) public admins; // Map walletAddress (string) to Admin struct\r\n\r\n    // Events\r\n    event AdminAdded(string indexed walletAddress, string name);\r\n    event AdminUpdated(string indexed walletAddress);\r\n\r\n    // Modifier to check if the sender is a registered admin\r\n    modifier onlyAdmin(string memory _walletAddress) {\r\n        require(admins[_walletAddress].isRegistered, \"Not a registered admin\");\r\n        _;\r\n    }\r\n\r\n    // Function to add a new admin, using walletAddress as the key\r\n    function addAdmin(\r\n        string memory _name,\r\n        string memory _walletAddress,  // Wallet address (string)\r\n        string memory _hashPassword\r\n    ) public {\r\n        require(!admins[_walletAddress].isRegistered, \"Admin already registered\");\r\n\r\n        Admin memory newAdmin = Admin({\r\n            isRegistered: true,\r\n            name: _name,\r\n            walletAddress: _walletAddress,\r\n            hashPassword: _hashPassword\r\n        });\r\n\r\n        admins[_walletAddress] = newAdmin;  // Store the admin using walletAddress as the key\r\n\r\n        emit AdminAdded(_walletAddress, _name);\r\n    }\r\n\r\n    // Function to update existing admin information, by walletAddress (string)\r\n    function updateAdmin(\r\n        string memory _walletAddress,  // Wallet address (string)\r\n        string memory _name,\r\n        string memory _hashPassword\r\n    ) public onlyAdmin(_walletAddress) {\r\n       \r\n        Admin storage admin = admins[_walletAddress];\r\n        \r\n        // Ensure the admin exists before updating\r\n        require(admin.isRegistered, \"Admin with this wallet address not found\");\r\n\r\n        // Update admin details\r\n        admin.name = _name;\r\n        admin.hashPassword = _hashPassword;\r\n\r\n        // Emit the update event\r\n        emit AdminUpdated(_walletAddress);\r\n    }\r\n\r\n    // Function to retrieve admin information by walletAddress (string)\r\n    function getAdminInfoByWallet(string memory _walletAddress)\r\n        public\r\n        view\r\n        returns (\r\n            string memory name,\r\n            string memory walletAddress,\r\n            string memory hashPassword\r\n        )\r\n    {\r\n        Admin storage admin = admins[_walletAddress];\r\n        require(admin.isRegistered, \"Admin with this wallet address not found\");\r\n\r\n        return (admin.name, admin.walletAddress, admin.hashPassword);\r\n    }\r\n\r\n    // Function to check if an admin is registered\r\n    function isAdminRegistered(string memory _walletAddress) public view returns (bool) {\r\n        return admins[_walletAddress].isRegistered;\r\n    }\r\n}\r\n",
  "sourcePath": "C:\\Users\\Hanane\\Desktop\\medical-record\\contracts\\AdminContract.sol",
  "compiler": {
    "name": "solc",
    "version": "0.8.19+commit.7dd6d404.Emscripten.clang"
  },
  "schemaVersion": "3.4.16",
  "updatedAt": "2024-12-16T17:03:42.316Z",
  "devdoc": {
    "kind": "dev",
    "methods": {},
    "version": 1
  },
  "userdoc": {
    "kind": "user",
    "methods": {},
    "version": 1
  }
}