{
  "contractName": "AuditContract",
  "abi": [
    {
      "inputs": [],
      "stateMutability": "nonpayable",
      "type": "constructor"
    },
    {
      "anonymous": false,
      "inputs": [
        {
          "indexed": true,
          "internalType": "address",
          "name": "contractAddress",
          "type": "address"
        }
      ],
      "name": "ContractAuthorized",
      "type": "event"
    },
    {
      "anonymous": false,
      "inputs": [
        {
          "indexed": true,
          "internalType": "address",
          "name": "actor",
          "type": "address"
        },
        {
          "indexed": true,
          "internalType": "address",
          "name": "subject",
          "type": "address"
        },
        {
          "indexed": false,
          "internalType": "string",
          "name": "action",
          "type": "string"
        }
      ],
      "name": "LogAdded",
      "type": "event"
    },
    {
      "inputs": [],
      "name": "admin",
      "outputs": [
        {
          "internalType": "address",
          "name": "",
          "type": "address"
        }
      ],
      "stateMutability": "view",
      "type": "function",
      "constant": true
    },
    {
      "inputs": [
        {
          "internalType": "uint256",
          "name": "",
          "type": "uint256"
        }
      ],
      "name": "auditLogs",
      "outputs": [
        {
          "internalType": "address",
          "name": "actor",
          "type": "address"
        },
        {
          "internalType": "address",
          "name": "subject",
          "type": "address"
        },
        {
          "internalType": "string",
          "name": "action",
          "type": "string"
        },
        {
          "internalType": "uint256",
          "name": "timestamp",
          "type": "uint256"
        }
      ],
      "stateMutability": "view",
      "type": "function",
      "constant": true
    },
    {
      "inputs": [
        {
          "internalType": "address",
          "name": "",
          "type": "address"
        }
      ],
      "name": "authorizedContracts",
      "outputs": [
        {
          "internalType": "bool",
          "name": "",
          "type": "bool"
        }
      ],
      "stateMutability": "view",
      "type": "function",
      "constant": true
    },
    {
      "inputs": [
        {
          "internalType": "address",
          "name": "contractAddress",
          "type": "address"
        }
      ],
      "name": "authorizeContract",
      "outputs": [],
      "stateMutability": "nonpayable",
      "type": "function"
    },
    {
      "inputs": [
        {
          "internalType": "address",
          "name": "actor",
          "type": "address"
        },
        {
          "internalType": "address",
          "name": "subject",
          "type": "address"
        },
        {
          "internalType": "string",
          "name": "action",
          "type": "string"
        }
      ],
      "name": "logAction",
      "outputs": [],
      "stateMutability": "nonpayable",
      "type": "function"
    },
    {
      "inputs": [],
      "name": "getAuditLogs",
      "outputs": [
        {
          "components": [
            {
              "internalType": "address",
              "name": "actor",
              "type": "address"
            },
            {
              "internalType": "address",
              "name": "subject",
              "type": "address"
            },
            {
              "internalType": "string",
              "name": "action",
              "type": "string"
            },
            {
              "internalType": "uint256",
              "name": "timestamp",
              "type": "uint256"
            }
          ],
          "internalType": "struct AuditContract.AuditLog[]",
          "name": "",
          "type": "tuple[]"
        }
      ],
      "stateMutability": "view",
      "type": "function",
      "constant": true
    }
  ],
  "bytecode": "0x608060405234801561001057600080fd5b5033600260006101000a81548173ffffffffffffffffffffffffffffffffffffffff021916908373ffffffffffffffffffffffffffffffffffffffff160217905550600073ffffffffffffffffffffffffffffffffffffffff16600260009054906101000a900473ffffffffffffffffffffffffffffffffffffffff1673ffffffffffffffffffffffffffffffffffffffff16036100e3576040517f08c379a00000000000000000000000000000000000000000000000000000000081526004016100da90610145565b60405180910390fd5b610165565b600082825260208201905092915050565b7f4572726f723a20496e76616c69642061646d696e206164647265737300000000600082015250565b600061012f601c836100e8565b915061013a826100f9565b602082019050919050565b6000602082019050818103600083015261015e81610122565b9050919050565b6114b980620001756000396000f3fe608060405234801561001057600080fd5b50600436106100625760003560e01c8063607604151461006757806367561d931461009a57806393295624146100b6578063c465f2f0146100d2578063d5b9221b146100f0578063f851a44014610120575b600080fd5b610081600480360381019061007c9190610959565b61013e565b6040516100919493929190610a66565b60405180910390f35b6100b460048036038101906100af9190610ade565b610246565b005b6100d060048036038101906100cb9190610c40565b6103e2565b005b6100da610722565b6040516100e79190610e3c565b60405180910390f35b61010a60048036038101906101059190610ade565b6108c9565b6040516101179190610e79565b60405180910390f35b6101286108e9565b6040516101359190610e94565b60405180910390f35b6000818154811061014e57600080fd5b90600052602060002090600402016000915090508060000160009054906101000a900473ffffffffffffffffffffffffffffffffffffffff16908060010160009054906101000a900473ffffffffffffffffffffffffffffffffffffffff16908060020180546101bd90610ede565b80601f01602080910402602001604051908101604052809291908181526020018280546101e990610ede565b80156102365780601f1061020b57610100808354040283529160200191610236565b820191906000526020600020905b81548152906001019060200180831161021957829003601f168201915b5050505050908060030154905084565b600260009054906101000a900473ffffffffffffffffffffffffffffffffffffffff1673ffffffffffffffffffffffffffffffffffffffff163373ffffffffffffffffffffffffffffffffffffffff16146102d6576040517f08c379a00000000000000000000000000000000000000000000000000000000081526004016102cd90610f81565b60405180910390fd5b600073ffffffffffffffffffffffffffffffffffffffff168173ffffffffffffffffffffffffffffffffffffffff1603610345576040517f08c379a000000000000000000000000000000000000000000000000000000000815260040161033c90610fed565b60405180910390fd5b60018060008373ffffffffffffffffffffffffffffffffffffffff1673ffffffffffffffffffffffffffffffffffffffff16815260200190815260200160002060006101000a81548160ff0219169083151502179055508073ffffffffffffffffffffffffffffffffffffffff167f8983a1f3c3cb45c24c8226b5b805e3b6eb49686530b808534b2a920129eff65160405160405180910390a250565b600160003373ffffffffffffffffffffffffffffffffffffffff1673ffffffffffffffffffffffffffffffffffffffff16815260200190815260200160002060009054906101000a900460ff1661046e576040517f08c379a00000000000000000000000000000000000000000000000000000000081526004016104659061107f565b60405180910390fd5b600073ffffffffffffffffffffffffffffffffffffffff168373ffffffffffffffffffffffffffffffffffffffff16036104dd576040517f08c379a00000000000000000000000000000000000000000000000000000000081526004016104d4906110eb565b60405180910390fd5b600073ffffffffffffffffffffffffffffffffffffffff168273ffffffffffffffffffffffffffffffffffffffff160361054c576040517f08c379a000000000000000000000000000000000000000000000000000000000815260040161054390611157565b60405180910390fd5b6000815111610590576040517f08c379a0000000000000000000000000000000000000000000000000000000008152600401610587906111c3565b60405180910390fd5b600060405180608001604052808573ffffffffffffffffffffffffffffffffffffffff1681526020018473ffffffffffffffffffffffffffffffffffffffff16815260200183815260200142815250908060018154018082558091505060019003906000526020600020906004020160009091909190915060008201518160000160006101000a81548173ffffffffffffffffffffffffffffffffffffffff021916908373ffffffffffffffffffffffffffffffffffffffff16021790555060208201518160010160006101000a81548173ffffffffffffffffffffffffffffffffffffffff021916908373ffffffffffffffffffffffffffffffffffffffff16021790555060408201518160020190816106ab919061138f565b506060820151816003015550508173ffffffffffffffffffffffffffffffffffffffff168373ffffffffffffffffffffffffffffffffffffffff167f654f6f5dd962e9ce8b05068c2405f00339984928602f36e6ec8e1cd6f89048cb836040516107159190611461565b60405180910390a3505050565b60606000805480602002602001604051908101604052809291908181526020016000905b828210156108c057838290600052602060002090600402016040518060800160405290816000820160009054906101000a900473ffffffffffffffffffffffffffffffffffffffff1673ffffffffffffffffffffffffffffffffffffffff1673ffffffffffffffffffffffffffffffffffffffff1681526020016001820160009054906101000a900473ffffffffffffffffffffffffffffffffffffffff1673ffffffffffffffffffffffffffffffffffffffff1673ffffffffffffffffffffffffffffffffffffffff16815260200160028201805461082590610ede565b80601f016020809104026020016040519081016040528092919081815260200182805461085190610ede565b801561089e5780601f106108735761010080835404028352916020019161089e565b820191906000526020600020905b81548152906001019060200180831161088157829003601f168201915b5050505050815260200160038201548152505081526020019060010190610746565b50505050905090565b60016020528060005260406000206000915054906101000a900460ff1681565b600260009054906101000a900473ffffffffffffffffffffffffffffffffffffffff1681565b6000604051905090565b600080fd5b600080fd5b6000819050919050565b61093681610923565b811461094157600080fd5b50565b6000813590506109538161092d565b92915050565b60006020828403121561096f5761096e610919565b5b600061097d84828501610944565b91505092915050565b600073ffffffffffffffffffffffffffffffffffffffff82169050919050565b60006109b182610986565b9050919050565b6109c1816109a6565b82525050565b600081519050919050565b600082825260208201905092915050565b60005b83811015610a015780820151818401526020810190506109e6565b60008484015250505050565b6000601f19601f8301169050919050565b6000610a29826109c7565b610a3381856109d2565b9350610a438185602086016109e3565b610a4c81610a0d565b840191505092915050565b610a6081610923565b82525050565b6000608082019050610a7b60008301876109b8565b610a8860208301866109b8565b8181036040830152610a9a8185610a1e565b9050610aa96060830184610a57565b95945050505050565b610abb816109a6565b8114610ac657600080fd5b50565b600081359050610ad881610ab2565b92915050565b600060208284031215610af457610af3610919565b5b6000610b0284828501610ac9565b91505092915050565b600080fd5b600080fd5b7f4e487b7100000000000000000000000000000000000000000000000000000000600052604160045260246000fd5b610b4d82610a0d565b810181811067ffffffffffffffff82111715610b6c57610b6b610b15565b5b80604052505050565b6000610b7f61090f565b9050610b8b8282610b44565b919050565b600067ffffffffffffffff821115610bab57610baa610b15565b5b610bb482610a0d565b9050602081019050919050565b82818337600083830152505050565b6000610be3610bde84610b90565b610b75565b905082815260208101848484011115610bff57610bfe610b10565b5b610c0a848285610bc1565b509392505050565b600082601f830112610c2757610c26610b0b565b5b8135610c37848260208601610bd0565b91505092915050565b600080600060608486031215610c5957610c58610919565b5b6000610c6786828701610ac9565b9350506020610c7886828701610ac9565b925050604084013567ffffffffffffffff811115610c9957610c9861091e565b5b610ca586828701610c12565b9150509250925092565b600081519050919050565b600082825260208201905092915050565b6000819050602082019050919050565b610ce4816109a6565b82525050565b600082825260208201905092915050565b6000610d06826109c7565b610d108185610cea565b9350610d208185602086016109e3565b610d2981610a0d565b840191505092915050565b610d3d81610923565b82525050565b6000608083016000830151610d5b6000860182610cdb565b506020830151610d6e6020860182610cdb565b5060408301518482036040860152610d868282610cfb565b9150506060830151610d9b6060860182610d34565b508091505092915050565b6000610db28383610d43565b905092915050565b6000602082019050919050565b6000610dd282610caf565b610ddc8185610cba565b935083602082028501610dee85610ccb565b8060005b85811015610e2a5784840389528151610e0b8582610da6565b9450610e1683610dba565b925060208a01995050600181019050610df2565b50829750879550505050505092915050565b60006020820190508181036000830152610e568184610dc7565b905092915050565b60008115159050919050565b610e7381610e5e565b82525050565b6000602082019050610e8e6000830184610e6a565b92915050565b6000602082019050610ea960008301846109b8565b92915050565b7f4e487b7100000000000000000000000000000000000000000000000000000000600052602260045260246000fd5b60006002820490506001821680610ef657607f821691505b602082108103610f0957610f08610eaf565b5b50919050565b7f4572726f723a204f6e6c792061646d696e2063616e20706572666f726d20746860008201527f697320616374696f6e0000000000000000000000000000000000000000000000602082015250565b6000610f6b6029836109d2565b9150610f7682610f0f565b604082019050919050565b60006020820190508181036000830152610f9a81610f5e565b9050919050565b7f4572726f723a20496e76616c696420636f6e7472616374206164647265737300600082015250565b6000610fd7601f836109d2565b9150610fe282610fa1565b602082019050919050565b6000602082019050818103600083015261100681610fca565b9050919050565b7f4572726f723a204e6f7420617574686f72697a656420746f206c6f672074686960008201527f7320616374696f6e000000000000000000000000000000000000000000000000602082015250565b60006110696028836109d2565b91506110748261100d565b604082019050919050565b600060208201905081810360008301526110988161105c565b9050919050565b7f4572726f723a20496e76616c6964206163746f72206164647265737300000000600082015250565b60006110d5601c836109d2565b91506110e08261109f565b602082019050919050565b60006020820190508181036000830152611104816110c8565b9050919050565b7f4572726f723a20496e76616c6964207375626a65637420616464726573730000600082015250565b6000611141601e836109d2565b915061114c8261110b565b602082019050919050565b6000602082019050818103600083015261117081611134565b9050919050565b7f4572726f723a20416374696f6e2063616e6e6f7420626520656d707479000000600082015250565b60006111ad601d836109d2565b91506111b882611177565b602082019050919050565b600060208201905081810360008301526111dc816111a0565b9050919050565b60008190508160005260206000209050919050565b60006020601f8301049050919050565b600082821b905092915050565b6000600883026112457fffffffffffffffffffffffffffffffffffffffffffffffffffffffffffffffff82611208565b61124f8683611208565b95508019841693508086168417925050509392505050565b6000819050919050565b600061128c61128761128284610923565b611267565b610923565b9050919050565b6000819050919050565b6112a683611271565b6112ba6112b282611293565b848454611215565b825550505050565b600090565b6112cf6112c2565b6112da81848461129d565b505050565b5b818110156112fe576112f36000826112c7565b6001810190506112e0565b5050565b601f82111561134357611314816111e3565b61131d846111f8565b8101602085101561132c578190505b611340611338856111f8565b8301826112df565b50505b505050565b600082821c905092915050565b600061136660001984600802611348565b1980831691505092915050565b600061137f8383611355565b9150826002028217905092915050565b611398826109c7565b67ffffffffffffffff8111156113b1576113b0610b15565b5b6113bb8254610ede565b6113c6828285611302565b600060209050601f8311600181146113f957600084156113e7578287015190505b6113f18582611373565b865550611459565b601f198416611407866111e3565b60005b8281101561142f5784890151825560018201915060208501945060208101905061140a565b8683101561144c5784890151611448601f891682611355565b8355505b6001600288020188555050505b505050505050565b6000602082019050818103600083015261147b8184610a1e565b90509291505056fea2646970667358221220b1834942d09cf3e91c5b86b39ce6381ebd49eac69243c6445266ec24a1568ebb64736f6c63430008130033",
  "immutableReferences": {},
  "source": "// SPDX-License-Identifier: MIT\npragma solidity ^0.8.19;\n\ncontract AuditContract {\n    struct AuditLog {\n        address actor;\n        address subject;\n        string action;\n        uint256 timestamp;\n    }\n\n    AuditLog[] public auditLogs;\n    mapping(address => bool) public authorizedContracts;\n    address public admin;\n\n    event LogAdded(address indexed actor, address indexed subject, string action);\n    event ContractAuthorized(address indexed contractAddress);\n\n    modifier onlyAdmin() {\n        require(msg.sender == admin, \"Error: Only admin can perform this action\");\n        _;\n    }\n\n    modifier onlyAuthorized() {\n        require(authorizedContracts[msg.sender], \"Error: Not authorized to log this action\");\n        _;\n    }\n\n    // Explicit constructor with validation\n    constructor() {\n        admin = msg.sender;  // Set the admin to the deployer's address\n        require(admin != address(0), \"Error: Invalid admin address\");  // Ensure valid admin address\n    }\n\n    function authorizeContract(address contractAddress) public onlyAdmin {\n        require(contractAddress != address(0), \"Error: Invalid contract address\");\n        authorizedContracts[contractAddress] = true;\n        emit ContractAuthorized(contractAddress);\n    }\n\n    function logAction(\n        address actor,\n        address subject,\n        string memory action\n    ) public onlyAuthorized {\n        require(actor != address(0), \"Error: Invalid actor address\");\n        require(subject != address(0), \"Error: Invalid subject address\");\n        require(bytes(action).length > 0, \"Error: Action cannot be empty\");\n\n        auditLogs.push(AuditLog({\n            actor: actor,\n            subject: subject,\n            action: action,\n            timestamp: block.timestamp\n        }));\n        emit LogAdded(actor, subject, action);\n    }\n\n    function getAuditLogs() public view returns (AuditLog[] memory) {\n        return auditLogs;\n    }\n}\n",
  "sourcePath": "/home/hafdaoui/Desktop/blockchain/project-fin-module/medical-record-blockchain/contracts/AuditContract.sol",
  "compiler": {
    "name": "solc",
    "version": "0.8.19+commit.7dd6d404.Emscripten.clang"
  },
  "schemaVersion": "3.4.16",
  "updatedAt": "2024-12-05T14:42:41.394Z",
  "networkType": "ethereum",
  "devdoc": {
    "kind": "dev",
    "methods": {},
    "version": 1
  },
  "userdoc": {
    "kind": "user",
    "methods": {},
    "version": 1
  }
}