{
  "contractName": "DoctorContract",
  "abi": [
    {
      "inputs": [
        {
          "internalType": "address",
          "name": "_auditContractAddress",
          "type": "address"
        }
      ],
      "stateMutability": "nonpayable",
      "type": "constructor"
    },
    {
      "anonymous": false,
      "inputs": [
        {
          "indexed": true,
          "internalType": "address",
          "name": "doctorAddress",
          "type": "address"
        },
        {
          "indexed": false,
          "internalType": "string",
          "name": "name",
          "type": "string"
        }
      ],
      "name": "DoctorRegistered",
      "type": "event"
    },
    {
      "anonymous": false,
      "inputs": [
        {
          "indexed": true,
          "internalType": "address",
          "name": "doctorAddress",
          "type": "address"
        }
      ],
      "name": "DoctorUpdated",
      "type": "event"
    },
    {
      "inputs": [],
      "name": "auditContractAddress",
      "outputs": [
        {
          "internalType": "address",
          "name": "",
          "type": "address"
        }
      ],
      "stateMutability": "view",
      "type": "function"
    },
    {
      "inputs": [
        {
          "internalType": "string",
          "name": "",
          "type": "string"
        }
      ],
      "name": "doctors",
      "outputs": [
        {
          "internalType": "bool",
          "name": "isRegistered",
          "type": "bool"
        },
        {
          "internalType": "string",
          "name": "name",
          "type": "string"
        },
        {
          "internalType": "string",
          "name": "speciality",
          "type": "string"
        },
        {
          "internalType": "string",
          "name": "licenseNumber",
          "type": "string"
        },
        {
          "internalType": "string",
          "name": "contactInfo",
          "type": "string"
        },
        {
          "internalType": "string",
          "name": "walletAddress",
          "type": "string"
        },
        {
          "internalType": "string",
          "name": "password",
          "type": "string"
        }
      ],
      "stateMutability": "view",
      "type": "function"
    },
    {
      "inputs": [
        {
          "internalType": "string",
          "name": "_name",
          "type": "string"
        },
        {
          "internalType": "string",
          "name": "_speciality",
          "type": "string"
        },
        {
          "internalType": "string",
          "name": "_licenseNumber",
          "type": "string"
        },
        {
          "internalType": "string",
          "name": "_contactInfo",
          "type": "string"
        },
        {
          "internalType": "string",
          "name": "_password",
          "type": "string"
        },
        {
          "internalType": "string",
          "name": "_walletAddress",
          "type": "string"
        }
      ],
      "name": "registerDoctor",
      "outputs": [],
      "stateMutability": "nonpayable",
      "type": "function"
    },
    {
      "inputs": [
        {
          "internalType": "string",
          "name": "_name",
          "type": "string"
        },
        {
          "internalType": "string",
          "name": "_speciality",
          "type": "string"
        },
        {
          "internalType": "string",
          "name": "_licenseNumber",
          "type": "string"
        },
        {
          "internalType": "string",
          "name": "_contactInfo",
          "type": "string"
        },
        {
          "internalType": "string",
          "name": "_walletAddress",
          "type": "string"
        }
      ],
      "name": "updateDoctorInfo",
      "outputs": [],
      "stateMutability": "nonpayable",
      "type": "function"
    },
    {
      "inputs": [
        {
          "internalType": "string",
          "name": "_walletAddress",
          "type": "string"
        }
      ],
      "name": "isDoctorRegistered",
      "outputs": [
        {
          "internalType": "bool",
          "name": "",
          "type": "bool"
        }
      ],
      "stateMutability": "view",
      "type": "function"
    },
    {
      "inputs": [
        {
          "internalType": "string",
          "name": "_walletAddress",
          "type": "string"
        }
      ],
      "name": "getDoctorInfo",
      "outputs": [
        {
          "internalType": "string",
          "name": "name",
          "type": "string"
        },
        {
          "internalType": "string",
          "name": "speciality",
          "type": "string"
        },
        {
          "internalType": "string",
          "name": "licenseNumber",
          "type": "string"
        },
        {
          "internalType": "string",
          "name": "contactInfo",
          "type": "string"
        },
        {
          "internalType": "string",
          "name": "password",
          "type": "string"
        }
      ],
      "stateMutability": "view",
      "type": "function"
    }
  ],
  "bytecode": "0x60806040523480156200001157600080fd5b506040516200178c3803806200178c8339818101604052810190620000379190620000e9565b80600160006101000a81548173ffffffffffffffffffffffffffffffffffffffff021916908373ffffffffffffffffffffffffffffffffffffffff160217905550506200011b565b600080fd5b600073ffffffffffffffffffffffffffffffffffffffff82169050919050565b6000620000b18262000084565b9050919050565b620000c381620000a4565b8114620000cf57600080fd5b50565b600081519050620000e381620000b8565b92915050565b6000602082840312156200010257620001016200007f565b5b60006200011284828501620000d2565b91505092915050565b611661806200012b6000396000f3fe608060405234801561001057600080fd5b50600436106100625760003560e01c806305c35ce51461006757806359a4c9a01461009d57806377fc3e36146100b95780638e72906a146100e9578063cb9b859f14610105578063d0e2fd2014610123575b600080fd5b610081600480360381019061007c9190610ce5565b610157565b6040516100949796959493929190610dc8565b60405180910390f35b6100b760048036038101906100b29190610e61565b6104ec565b005b6100d360048036038101906100ce9190610ce5565b6106ac565b6040516100e09190610f96565b60405180910390f35b61010360048036038101906100fe9190610fb1565b6106e3565b005b61010d610807565b60405161011a91906110f9565b60405180910390f35b61013d60048036038101906101389190610ce5565b61082d565b60405161014e959493929190611114565b60405180910390f35b6000818051602081018201805184825260208301602085012081835280955050505050506000915090508060000160009054906101000a900460ff16908060010180546101a3906111b9565b80601f01602080910402602001604051908101604052809291908181526020018280546101cf906111b9565b801561021c5780601f106101f15761010080835404028352916020019161021c565b820191906000526020600020905b8154815290600101906020018083116101ff57829003601f168201915b505050505090806002018054610231906111b9565b80601f016020809104026020016040519081016040528092919081815260200182805461025d906111b9565b80156102aa5780601f1061027f576101008083540402835291602001916102aa565b820191906000526020600020905b81548152906001019060200180831161028d57829003601f168201915b5050505050908060030180546102bf906111b9565b80601f01602080910402602001604051908101604052809291908181526020018280546102eb906111b9565b80156103385780601f1061030d57610100808354040283529160200191610338565b820191906000526020600020905b81548152906001019060200180831161031b57829003601f168201915b50505050509080600401805461034d906111b9565b80601f0160208091040260200160405190810160405280929190818152602001828054610379906111b9565b80156103c65780601f1061039b576101008083540402835291602001916103c6565b820191906000526020600020905b8154815290600101906020018083116103a957829003601f168201915b5050505050908060050180546103db906111b9565b80601f0160208091040260200160405190810160405280929190818152602001828054610407906111b9565b80156104545780601f1061042957610100808354040283529160200191610454565b820191906000526020600020905b81548152906001019060200180831161043757829003601f168201915b505050505090806006018054610469906111b9565b80601f0160208091040260200160405190810160405280929190818152602001828054610495906111b9565b80156104e25780601f106104b7576101008083540402835291602001916104e2565b820191906000526020600020905b8154815290600101906020018083116104c557829003601f168201915b5050505050905087565b6000816040516104fc9190611226565b908152602001604051809103902060000160009054906101000a900460ff161561055b576040517f08c379a000000000000000000000000000000000000000000000000000000000815260040161055290611289565b60405180910390fd5b6040518060e00160405280600115158152602001878152602001868152602001858152602001848152602001828152602001838152506000826040516105a19190611226565b908152602001604051809103902060008201518160000160006101000a81548160ff02191690831515021790555060208201518160010190816105e4919061145f565b5060408201518160020190816105fa919061145f565b506060820151816003019081610610919061145f565b506080820151816004019081610626919061145f565b5060a082015181600501908161063c919061145f565b5060c0820151816006019081610652919061145f565b509050503373ffffffffffffffffffffffffffffffffffffffff167f20481b8112b5bf4734f45a473c373db9df6a79ce946cdc0e7dbc22b4f7d7f9868760405161069c9190611531565b60405180910390a2505050505050565b600080826040516106bd9190611226565b908152602001604051809103902060000160009054906101000a900460ff169050919050565b806000816040516106f49190611226565b908152602001604051809103902060000160009054906101000a900460ff16610752576040517f08c379a00000000000000000000000000000000000000000000000000000000081526004016107499061159f565b60405180910390fd5b600080836040516107639190611226565b9081526020016040518091039020905086816001019081610784919061145f565b5085816002019081610796919061145f565b50848160030190816107a8919061145f565b50838160040190816107ba919061145f565b503373ffffffffffffffffffffffffffffffffffffffff167fb0f441f0378ac342b05d66fb7fbec990ff3707972f569be1888747f67e33a5f560405160405180910390a250505050505050565b600160009054906101000a900473ffffffffffffffffffffffffffffffffffffffff1681565b6060806060806060600080876040516108469190611226565b908152602001604051809103902090508060000160009054906101000a900460ff166108a7576040517f08c379a000000000000000000000000000000000000000000000000000000000815260040161089e9061160b565b60405180910390fd5b80600101816002018260030183600401846006018480546108c7906111b9565b80601f01602080910402602001604051908101604052809291908181526020018280546108f3906111b9565b80156109405780601f1061091557610100808354040283529160200191610940565b820191906000526020600020905b81548152906001019060200180831161092357829003601f168201915b50505050509450838054610953906111b9565b80601f016020809104026020016040519081016040528092919081815260200182805461097f906111b9565b80156109cc5780601f106109a1576101008083540402835291602001916109cc565b820191906000526020600020905b8154815290600101906020018083116109af57829003601f168201915b505050505093508280546109df906111b9565b80601f0160208091040260200160405190810160405280929190818152602001828054610a0b906111b9565b8015610a585780601f10610a2d57610100808354040283529160200191610a58565b820191906000526020600020905b815481529060010190602001808311610a3b57829003601f168201915b50505050509250818054610a6b906111b9565b80601f0160208091040260200160405190810160405280929190818152602001828054610a97906111b9565b8015610ae45780601f10610ab957610100808354040283529160200191610ae4565b820191906000526020600020905b815481529060010190602001808311610ac757829003601f168201915b50505050509150808054610af7906111b9565b80601f0160208091040260200160405190810160405280929190818152602001828054610b23906111b9565b8015610b705780601f10610b4557610100808354040283529160200191610b70565b820191906000526020600020905b815481529060010190602001808311610b5357829003601f168201915b50505050509050955095509550955095505091939590929450565b6000604051905090565b600080fd5b600080fd5b600080fd5b600080fd5b6000601f19601f8301169050919050565b7f4e487b7100000000000000000000000000000000000000000000000000000000600052604160045260246000fd5b610bf282610ba9565b810181811067ffffffffffffffff82111715610c1157610c10610bba565b5b80604052505050565b6000610c24610b8b565b9050610c308282610be9565b919050565b600067ffffffffffffffff821115610c5057610c4f610bba565b5b610c5982610ba9565b9050602081019050919050565b82818337600083830152505050565b6000610c88610c8384610c35565b610c1a565b905082815260208101848484011115610ca457610ca3610ba4565b5b610caf848285610c66565b509392505050565b600082601f830112610ccc57610ccb610b9f565b5b8135610cdc848260208601610c75565b91505092915050565b600060208284031215610cfb57610cfa610b95565b5b600082013567ffffffffffffffff811115610d1957610d18610b9a565b5b610d2584828501610cb7565b91505092915050565b60008115159050919050565b610d4381610d2e565b82525050565b600081519050919050565b600082825260208201905092915050565b60005b83811015610d83578082015181840152602081019050610d68565b60008484015250505050565b6000610d9a82610d49565b610da48185610d54565b9350610db4818560208601610d65565b610dbd81610ba9565b840191505092915050565b600060e082019050610ddd600083018a610d3a565b8181036020830152610def8189610d8f565b90508181036040830152610e038188610d8f565b90508181036060830152610e178187610d8f565b90508181036080830152610e2b8186610d8f565b905081810360a0830152610e3f8185610d8f565b905081810360c0830152610e538184610d8f565b905098975050505050505050565b60008060008060008060c08789031215610e7e57610e7d610b95565b5b600087013567ffffffffffffffff811115610e9c57610e9b610b9a565b5b610ea889828a01610cb7565b965050602087013567ffffffffffffffff811115610ec957610ec8610b9a565b5b610ed589828a01610cb7565b955050604087013567ffffffffffffffff811115610ef657610ef5610b9a565b5b610f0289828a01610cb7565b945050606087013567ffffffffffffffff811115610f2357610f22610b9a565b5b610f2f89828a01610cb7565b935050608087013567ffffffffffffffff811115610f5057610f4f610b9a565b5b610f5c89828a01610cb7565b92505060a087013567ffffffffffffffff811115610f7d57610f7c610b9a565b5b610f8989828a01610cb7565b9150509295509295509295565b6000602082019050610fab6000830184610d3a565b92915050565b600080600080600060a08688031215610fcd57610fcc610b95565b5b600086013567ffffffffffffffff811115610feb57610fea610b9a565b5b610ff788828901610cb7565b955050602086013567ffffffffffffffff81111561101857611017610b9a565b5b61102488828901610cb7565b945050604086013567ffffffffffffffff81111561104557611044610b9a565b5b61105188828901610cb7565b935050606086013567ffffffffffffffff81111561107257611071610b9a565b5b61107e88828901610cb7565b925050608086013567ffffffffffffffff81111561109f5761109e610b9a565b5b6110ab88828901610cb7565b9150509295509295909350565b600073ffffffffffffffffffffffffffffffffffffffff82169050919050565b60006110e3826110b8565b9050919050565b6110f3816110d8565b82525050565b600060208201905061110e60008301846110ea565b92915050565b600060a082019050818103600083015261112e8188610d8f565b905081810360208301526111428187610d8f565b905081810360408301526111568186610d8f565b9050818103606083015261116a8185610d8f565b9050818103608083015261117e8184610d8f565b90509695505050505050565b7f4e487b7100000000000000000000000000000000000000000000000000000000600052602260045260246000fd5b600060028204905060018216806111d157607f821691505b6020821081036111e4576111e361118a565b5b50919050565b600081905092915050565b600061120082610d49565b61120a81856111ea565b935061121a818560208601610d65565b80840191505092915050565b600061123282846111f5565b915081905092915050565b7f446f63746f7220616c7265616479207265676973746572656400000000000000600082015250565b6000611273601983610d54565b915061127e8261123d565b602082019050919050565b600060208201905081810360008301526112a281611266565b9050919050565b60008190508160005260206000209050919050565b60006020601f8301049050919050565b600082821b905092915050565b60006008830261130b7fffffffffffffffffffffffffffffffffffffffffffffffffffffffffffffffff826112ce565b61131586836112ce565b95508019841693508086168417925050509392505050565b6000819050919050565b6000819050919050565b600061135c6113576113528461132d565b611337565b61132d565b9050919050565b6000819050919050565b61137683611341565b61138a61138282611363565b8484546112db565b825550505050565b600090565b61139f611392565b6113aa81848461136d565b505050565b5b818110156113ce576113c3600082611397565b6001810190506113b0565b5050565b601f821115611413576113e4816112a9565b6113ed846112be565b810160208510156113fc578190505b611410611408856112be565b8301826113af565b50505b505050565b600082821c905092915050565b600061143660001984600802611418565b1980831691505092915050565b600061144f8383611425565b9150826002028217905092915050565b61146882610d49565b67ffffffffffffffff81111561148157611480610bba565b5b61148b82546111b9565b6114968282856113d2565b600060209050601f8311600181146114c957600084156114b7578287015190505b6114c18582611443565b865550611529565b601f1984166114d7866112a9565b60005b828110156114ff578489015182556001820191506020850194506020810190506114da565b8683101561151c5784890151611518601f891682611425565b8355505b6001600288020188555050505b505050505050565b6000602082019050818103600083015261154b8184610d8f565b905092915050565b7f4e6f742061207265676973746572656420646f63746f72000000000000000000600082015250565b6000611589601783610d54565b915061159482611553565b602082019050919050565b600060208201905081810360008301526115b88161157c565b9050919050565b7f446f63746f72206e6f7420726567697374657265640000000000000000000000600082015250565b60006115f5601583610d54565b9150611600826115bf565b602082019050919050565b60006020820190508181036000830152611624816115e8565b905091905056fea2646970667358221220271c9f8260b39186b935f4589edd7cec2445269f168e1c39a99c0784fc9d211c64736f6c63430008130033",
  "immutableReferences": {},
  "source": "// SPDX-License-Identifier: MIT\n\npragma solidity ^0.8.19;\n\nimport \"./IPatientRecords.sol\";\n\ncontract DoctorContract {\n    using IPatientRecords for IPatientRecords.Doctor;\n\n    mapping(string => IPatientRecords.Doctor) public doctors;\n    address public auditContractAddress;\n\n    event DoctorRegistered(address indexed doctorAddress, string name);\n    event DoctorUpdated(address indexed doctorAddress);\n\n    constructor(address _auditContractAddress) {\n        auditContractAddress = _auditContractAddress;\n    }\n\n    modifier onlyRegisteredDoctor(string memory _walletAddress) {\n        require(doctors[_walletAddress].isRegistered, \"Not a registered doctor\");\n        _;\n    }\n\n    function registerDoctor(\n        string memory _name,\n        string memory _speciality,\n        string memory _licenseNumber,\n        string memory _contactInfo,\n        string memory _password,\n        string memory _walletAddress\n       \n    ) public {\n        require(!doctors[_walletAddress].isRegistered, \"Doctor already registered\");\n\n        doctors[_walletAddress] = IPatientRecords.Doctor({\n            isRegistered: true,\n            name: _name,\n            speciality: _speciality,\n            licenseNumber: _licenseNumber,\n            contactInfo: _contactInfo,\n            password: _password,\n            walletAddress : _walletAddress\n           \n        });\n\n        emit DoctorRegistered(msg.sender, _name);\n    }\n\n    function updateDoctorInfo(\n        string memory _name,\n        string memory _speciality,\n        string memory _licenseNumber,\n        string memory _contactInfo,\n        string memory _walletAddress\n        \n    ) public onlyRegisteredDoctor(_walletAddress) {\n        IPatientRecords.Doctor storage doctor = doctors[_walletAddress];\n        doctor.name = _name;\n        doctor.speciality = _speciality;\n        doctor.licenseNumber = _licenseNumber;\n        doctor.contactInfo = _contactInfo;\n        \n\n        emit DoctorUpdated(msg.sender);\n    }\n\n    function isDoctorRegistered(string memory _walletAddress) public view returns (bool) {\n        return doctors[_walletAddress].isRegistered;\n    }\n\n    function getDoctorInfo(string memory _walletAddress)\n    public\n    view\n    returns (string memory name, string memory speciality, string memory licenseNumber, string memory contactInfo,string memory password)\n    {\n        \n        IPatientRecords.Doctor storage doctor = doctors[_walletAddress];\n        require(doctor.isRegistered, \"Doctor not registered\");\n        return (doctor.name, doctor.speciality, doctor.licenseNumber, doctor.contactInfo,doctor.password);\n    }\n}\n",
  "sourcePath": "C:\\Users\\Hanane\\Desktop\\medical-record\\contracts\\DoctorContract.sol",
  "compiler": {
    "name": "solc",
    "version": "0.8.19+commit.7dd6d404.Emscripten.clang"
  },
  "schemaVersion": "3.4.16",
  "updatedAt": "2024-12-16T17:03:42.367Z",
  "devdoc": {
    "kind": "dev",
    "methods": {},
    "version": 1
  },
  "userdoc": {
    "kind": "user",
    "methods": {},
    "version": 1
  }
}