{
  "contractName": "DoctorContract",
  "abi": [
    {
      "inputs": [
        {
          "internalType": "address",
          "name": "_auditContractAddress",
          "type": "address"
        }
      ],
      "stateMutability": "nonpayable",
      "type": "constructor"
    },
    {
      "anonymous": false,
      "inputs": [
        {
          "indexed": true,
          "internalType": "address",
          "name": "doctorAddress",
          "type": "address"
        },
        {
          "indexed": false,
          "internalType": "string",
          "name": "name",
          "type": "string"
        }
      ],
      "name": "DoctorRegistered",
      "type": "event"
    },
    {
      "anonymous": false,
      "inputs": [
        {
          "indexed": true,
          "internalType": "address",
          "name": "doctorAddress",
          "type": "address"
        }
      ],
      "name": "DoctorUpdated",
      "type": "event"
    },
    {
      "inputs": [],
      "name": "auditContractAddress",
      "outputs": [
        {
          "internalType": "address",
          "name": "",
          "type": "address"
        }
      ],
      "stateMutability": "view",
      "type": "function",
      "constant": true
    },
    {
      "inputs": [
        {
          "internalType": "address",
          "name": "",
          "type": "address"
        }
      ],
      "name": "doctors",
      "outputs": [
        {
          "internalType": "bool",
          "name": "isRegistered",
          "type": "bool"
        },
        {
          "internalType": "string",
          "name": "name",
          "type": "string"
        },
        {
          "internalType": "string",
          "name": "speciality",
          "type": "string"
        },
        {
          "internalType": "string",
          "name": "encryptionKey",
          "type": "string"
        }
      ],
      "stateMutability": "view",
      "type": "function",
      "constant": true
    },
    {
      "inputs": [
        {
          "internalType": "string",
          "name": "_name",
          "type": "string"
        },
        {
          "internalType": "string",
          "name": "_speciality",
          "type": "string"
        },
        {
          "internalType": "string",
          "name": "_encryptionKey",
          "type": "string"
        }
      ],
      "name": "registerDoctor",
      "outputs": [],
      "stateMutability": "nonpayable",
      "type": "function"
    },
    {
      "inputs": [
        {
          "internalType": "string",
          "name": "_name",
          "type": "string"
        },
        {
          "internalType": "string",
          "name": "_speciality",
          "type": "string"
        },
        {
          "internalType": "string",
          "name": "_encryptionKey",
          "type": "string"
        }
      ],
      "name": "updateDoctorInfo",
      "outputs": [],
      "stateMutability": "nonpayable",
      "type": "function"
    },
    {
      "inputs": [
        {
          "internalType": "address",
          "name": "doctorAddress",
          "type": "address"
        }
      ],
      "name": "isDoctorRegistered",
      "outputs": [
        {
          "internalType": "bool",
          "name": "",
          "type": "bool"
        }
      ],
      "stateMutability": "view",
      "type": "function",
      "constant": true
    },
    {
      "inputs": [
        {
          "internalType": "address",
          "name": "doctorAddress",
          "type": "address"
        }
      ],
      "name": "getDoctorInfo",
      "outputs": [
        {
          "internalType": "string",
          "name": "name",
          "type": "string"
        },
        {
          "internalType": "string",
          "name": "speciality",
          "type": "string"
        }
      ],
      "stateMutability": "view",
      "type": "function",
      "constant": true
    }
  ],
  "bytecode": "0x60806040523480156200001157600080fd5b5060405162001244380380620012448339818101604052810190620000379190620000e9565b80600160006101000a81548173ffffffffffffffffffffffffffffffffffffffff021916908373ffffffffffffffffffffffffffffffffffffffff160217905550506200011b565b600080fd5b600073ffffffffffffffffffffffffffffffffffffffff82169050919050565b6000620000b18262000084565b9050919050565b620000c381620000a4565b8114620000cf57600080fd5b50565b600081519050620000e381620000b8565b92915050565b6000602082840312156200010257620001016200007f565b5b60006200011284828501620000d2565b91505092915050565b611119806200012b6000396000f3fe608060405234801561001057600080fd5b50600436106100625760003560e01c806350c7a912146100675780636f12fc35146100835780636f3a4b73146100b457806378550390146100d0578063a9583c2214610100578063cb9b859f14610133575b600080fd5b610081600480360381019061007c91906109f3565b610151565b005b61009d60048036038101906100989190610af8565b6102fa565b6040516100ab929190610ba4565b60405180910390f35b6100ce60048036038101906100c991906109f3565b6104f7565b005b6100ea60048036038101906100e59190610af8565b610646565b6040516100f79190610bf6565b60405180910390f35b61011a60048036038101906101159190610af8565b61069e565b60405161012a9493929190610c11565b60405180910390f35b61013b610873565b6040516101489190610c7a565b60405180910390f35b6000803373ffffffffffffffffffffffffffffffffffffffff1673ffffffffffffffffffffffffffffffffffffffff16815260200190815260200160002060000160009054906101000a900460ff16156101e0576040517f08c379a00000000000000000000000000000000000000000000000000000000081526004016101d790610ce1565b60405180910390fd5b6040518060800160405280600115158152602001848152602001838152602001828152506000803373ffffffffffffffffffffffffffffffffffffffff1673ffffffffffffffffffffffffffffffffffffffff16815260200190815260200160002060008201518160000160006101000a81548160ff02191690831515021790555060208201518160010190816102779190610f17565b50604082015181600201908161028d9190610f17565b5060608201518160030190816102a39190610f17565b509050503373ffffffffffffffffffffffffffffffffffffffff167f20481b8112b5bf4734f45a473c373db9df6a79ce946cdc0e7dbc22b4f7d7f986846040516102ed9190610fe9565b60405180910390a2505050565b6060806000808473ffffffffffffffffffffffffffffffffffffffff1673ffffffffffffffffffffffffffffffffffffffff16815260200190815260200160002060000160009054906101000a900460ff1661038b576040517f08c379a000000000000000000000000000000000000000000000000000000000815260040161038290611057565b60405180910390fd5b60008060008573ffffffffffffffffffffffffffffffffffffffff1673ffffffffffffffffffffffffffffffffffffffff168152602001908152602001600020905080600101816002018180546103e190610d30565b80601f016020809104026020016040519081016040528092919081815260200182805461040d90610d30565b801561045a5780601f1061042f5761010080835404028352916020019161045a565b820191906000526020600020905b81548152906001019060200180831161043d57829003601f168201915b5050505050915080805461046d90610d30565b80601f016020809104026020016040519081016040528092919081815260200182805461049990610d30565b80156104e65780601f106104bb576101008083540402835291602001916104e6565b820191906000526020600020905b8154815290600101906020018083116104c957829003601f168201915b505050505090509250925050915091565b6000803373ffffffffffffffffffffffffffffffffffffffff1673ffffffffffffffffffffffffffffffffffffffff16815260200190815260200160002060000160009054906101000a900460ff16610585576040517f08c379a000000000000000000000000000000000000000000000000000000000815260040161057c906110c3565b60405180910390fd5b60008060003373ffffffffffffffffffffffffffffffffffffffff1673ffffffffffffffffffffffffffffffffffffffff1681526020019081526020016000209050838160010190816105d89190610f17565b50828160020190816105ea9190610f17565b50818160030190816105fc9190610f17565b503373ffffffffffffffffffffffffffffffffffffffff167fb0f441f0378ac342b05d66fb7fbec990ff3707972f569be1888747f67e33a5f560405160405180910390a250505050565b60008060008373ffffffffffffffffffffffffffffffffffffffff1673ffffffffffffffffffffffffffffffffffffffff16815260200190815260200160002060000160009054906101000a900460ff169050919050565b60006020528060005260406000206000915090508060000160009054906101000a900460ff16908060010180546106d490610d30565b80601f016020809104026020016040519081016040528092919081815260200182805461070090610d30565b801561074d5780601f106107225761010080835404028352916020019161074d565b820191906000526020600020905b81548152906001019060200180831161073057829003601f168201915b50505050509080600201805461076290610d30565b80601f016020809104026020016040519081016040528092919081815260200182805461078e90610d30565b80156107db5780601f106107b0576101008083540402835291602001916107db565b820191906000526020600020905b8154815290600101906020018083116107be57829003601f168201915b5050505050908060030180546107f090610d30565b80601f016020809104026020016040519081016040528092919081815260200182805461081c90610d30565b80156108695780601f1061083e57610100808354040283529160200191610869565b820191906000526020600020905b81548152906001019060200180831161084c57829003601f168201915b5050505050905084565b600160009054906101000a900473ffffffffffffffffffffffffffffffffffffffff1681565b6000604051905090565b600080fd5b600080fd5b600080fd5b600080fd5b6000601f19601f8301169050919050565b7f4e487b7100000000000000000000000000000000000000000000000000000000600052604160045260246000fd5b610900826108b7565b810181811067ffffffffffffffff8211171561091f5761091e6108c8565b5b80604052505050565b6000610932610899565b905061093e82826108f7565b919050565b600067ffffffffffffffff82111561095e5761095d6108c8565b5b610967826108b7565b9050602081019050919050565b82818337600083830152505050565b600061099661099184610943565b610928565b9050828152602081018484840111156109b2576109b16108b2565b5b6109bd848285610974565b509392505050565b600082601f8301126109da576109d96108ad565b5b81356109ea848260208601610983565b91505092915050565b600080600060608486031215610a0c57610a0b6108a3565b5b600084013567ffffffffffffffff811115610a2a57610a296108a8565b5b610a36868287016109c5565b935050602084013567ffffffffffffffff811115610a5757610a566108a8565b5b610a63868287016109c5565b925050604084013567ffffffffffffffff811115610a8457610a836108a8565b5b610a90868287016109c5565b9150509250925092565b600073ffffffffffffffffffffffffffffffffffffffff82169050919050565b6000610ac582610a9a565b9050919050565b610ad581610aba565b8114610ae057600080fd5b50565b600081359050610af281610acc565b92915050565b600060208284031215610b0e57610b0d6108a3565b5b6000610b1c84828501610ae3565b91505092915050565b600081519050919050565b600082825260208201905092915050565b60005b83811015610b5f578082015181840152602081019050610b44565b60008484015250505050565b6000610b7682610b25565b610b808185610b30565b9350610b90818560208601610b41565b610b99816108b7565b840191505092915050565b60006040820190508181036000830152610bbe8185610b6b565b90508181036020830152610bd28184610b6b565b90509392505050565b60008115159050919050565b610bf081610bdb565b82525050565b6000602082019050610c0b6000830184610be7565b92915050565b6000608082019050610c266000830187610be7565b8181036020830152610c388186610b6b565b90508181036040830152610c4c8185610b6b565b90508181036060830152610c608184610b6b565b905095945050505050565b610c7481610aba565b82525050565b6000602082019050610c8f6000830184610c6b565b92915050565b7f446f63746f7220616c7265616479207265676973746572656400000000000000600082015250565b6000610ccb601983610b30565b9150610cd682610c95565b602082019050919050565b60006020820190508181036000830152610cfa81610cbe565b9050919050565b7f4e487b7100000000000000000000000000000000000000000000000000000000600052602260045260246000fd5b60006002820490506001821680610d4857607f821691505b602082108103610d5b57610d5a610d01565b5b50919050565b60008190508160005260206000209050919050565b60006020601f8301049050919050565b600082821b905092915050565b600060088302610dc37fffffffffffffffffffffffffffffffffffffffffffffffffffffffffffffffff82610d86565b610dcd8683610d86565b95508019841693508086168417925050509392505050565b6000819050919050565b6000819050919050565b6000610e14610e0f610e0a84610de5565b610def565b610de5565b9050919050565b6000819050919050565b610e2e83610df9565b610e42610e3a82610e1b565b848454610d93565b825550505050565b600090565b610e57610e4a565b610e62818484610e25565b505050565b5b81811015610e8657610e7b600082610e4f565b600181019050610e68565b5050565b601f821115610ecb57610e9c81610d61565b610ea584610d76565b81016020851015610eb4578190505b610ec8610ec085610d76565b830182610e67565b50505b505050565b600082821c905092915050565b6000610eee60001984600802610ed0565b1980831691505092915050565b6000610f078383610edd565b9150826002028217905092915050565b610f2082610b25565b67ffffffffffffffff811115610f3957610f386108c8565b5b610f438254610d30565b610f4e828285610e8a565b600060209050601f831160018114610f815760008415610f6f578287015190505b610f798582610efb565b865550610fe1565b601f198416610f8f86610d61565b60005b82811015610fb757848901518255600182019150602085019450602081019050610f92565b86831015610fd45784890151610fd0601f891682610edd565b8355505b6001600288020188555050505b505050505050565b600060208201905081810360008301526110038184610b6b565b905092915050565b7f446f63746f72206e6f7420726567697374657265640000000000000000000000600082015250565b6000611041601583610b30565b915061104c8261100b565b602082019050919050565b6000602082019050818103600083015261107081611034565b9050919050565b7f4e6f742061207265676973746572656420646f63746f72000000000000000000600082015250565b60006110ad601783610b30565b91506110b882611077565b602082019050919050565b600060208201905081810360008301526110dc816110a0565b905091905056fea2646970667358221220a21df57bc012fc4686521970779571f4ff756085f8ccb1d13fab092679fed8ce64736f6c63430008130033",
  "immutableReferences": {},
  "source": "// SPDX-License-Identifier: MIT\n\npragma solidity ^0.8.0;\n\nimport \"./IPatientRecords.sol\";\n\ncontract DoctorContract {\n    using IPatientRecords for IPatientRecords.Doctor;\n\n    mapping(address => IPatientRecords.Doctor) public doctors;\n    address public auditContractAddress;\n\n    event DoctorRegistered(address indexed doctorAddress, string name);\n    event DoctorUpdated(address indexed doctorAddress);\n\n    constructor(address _auditContractAddress) {\n        auditContractAddress = _auditContractAddress;\n    }\n\n    modifier onlyRegisteredDoctor() {\n        require(doctors[msg.sender].isRegistered, \"Not a registered doctor\");\n        _;\n    }\n\n    function registerDoctor(\n        string memory _name,\n        string memory _speciality,\n        string memory _encryptionKey\n    ) public {\n        require(!doctors[msg.sender].isRegistered, \"Doctor already registered\");\n\n        doctors[msg.sender] = IPatientRecords.Doctor({\n            isRegistered: true,\n            name: _name,\n            speciality: _speciality,\n            encryptionKey: _encryptionKey\n        });\n\n        emit DoctorRegistered(msg.sender, _name);\n    }\n\n    function updateDoctorInfo(\n        string memory _name,\n        string memory _speciality,\n        string memory _encryptionKey\n    ) public onlyRegisteredDoctor {\n        IPatientRecords.Doctor storage doctor = doctors[msg.sender];\n        doctor.name = _name;\n        doctor.speciality = _speciality;\n        doctor.encryptionKey = _encryptionKey;\n\n        emit DoctorUpdated(msg.sender);\n    }\n\n    function isDoctorRegistered(address doctorAddress) public view returns (bool) {\n        return doctors[doctorAddress].isRegistered;\n    }\n\n    function getDoctorInfo(address doctorAddress)\n    public\n    view\n    returns (string memory name, string memory speciality)\n    {\n        require(doctors[doctorAddress].isRegistered, \"Doctor not registered\");\n        IPatientRecords.Doctor storage doctor = doctors[doctorAddress];\n        return (doctor.name, doctor.speciality);\n    }\n}\n",
  "sourcePath": "/home/hafdaoui/Desktop/blockchain/project-fin-module/medical-record-blockchain/contracts/DoctorContract.sol",
  "compiler": {
    "name": "solc",
    "version": "0.8.19+commit.7dd6d404.Emscripten.clang"
  },
  "schemaVersion": "3.4.16",
  "updatedAt": "2024-12-05T14:42:41.404Z",
  "networkType": "ethereum",
  "devdoc": {
    "kind": "dev",
    "methods": {},
    "version": 1
  },
  "userdoc": {
    "kind": "user",
    "methods": {},
    "version": 1
  }
}