{
  "contractName": "PatientContract",
  "abi": [
    {
      "inputs": [
        {
          "internalType": "address",
          "name": "_doctorContractAddress",
          "type": "address"
        },
        {
          "internalType": "address",
          "name": "_auditContractAddress",
          "type": "address"
        }
      ],
      "stateMutability": "nonpayable",
      "type": "constructor"
    },
    {
      "anonymous": false,
      "inputs": [
        {
          "indexed": true,
          "internalType": "address",
          "name": "patient",
          "type": "address"
        },
        {
          "indexed": false,
          "internalType": "string",
          "name": "doctor",
          "type": "string"
        }
      ],
      "name": "AccessGranted",
      "type": "event"
    },
    {
      "anonymous": false,
      "inputs": [
        {
          "indexed": true,
          "internalType": "address",
          "name": "patient",
          "type": "address"
        },
        {
          "indexed": false,
          "internalType": "string",
          "name": "doctor",
          "type": "string"
        }
      ],
      "name": "AccessRevoked",
      "type": "event"
    },
    {
      "anonymous": false,
      "inputs": [
        {
          "indexed": true,
          "internalType": "address",
          "name": "patientAddress",
          "type": "address"
        }
      ],
      "name": "PatientRegistered",
      "type": "event"
    },
    {
      "anonymous": false,
      "inputs": [
        {
          "indexed": true,
          "internalType": "address",
          "name": "patient",
          "type": "address"
        },
        {
          "indexed": false,
          "internalType": "string",
          "name": "ipfsHash",
          "type": "string"
        }
      ],
      "name": "RecordAdded",
      "type": "event"
    },
    {
      "inputs": [],
      "name": "auditContractAddress",
      "outputs": [
        {
          "internalType": "address",
          "name": "",
          "type": "address"
        }
      ],
      "stateMutability": "view",
      "type": "function"
    },
    {
      "inputs": [],
      "name": "doctorContract",
      "outputs": [
        {
          "internalType": "contract DoctorContract",
          "name": "",
          "type": "address"
        }
      ],
      "stateMutability": "view",
      "type": "function"
    },
    {
      "inputs": [
        {
          "internalType": "string",
          "name": "",
          "type": "string"
        }
      ],
      "name": "patients",
      "outputs": [
        {
          "internalType": "bool",
          "name": "isRegistered",
          "type": "bool"
        },
        {
          "internalType": "string",
          "name": "encryptionKey",
          "type": "string"
        },
        {
          "internalType": "string",
          "name": "fullName",
          "type": "string"
        },
        {
          "internalType": "string",
          "name": "gender",
          "type": "string"
        },
        {
          "internalType": "uint256",
          "name": "age",
          "type": "uint256"
        },
        {
          "internalType": "uint256",
          "name": "weight",
          "type": "uint256"
        },
        {
          "internalType": "uint256",
          "name": "height",
          "type": "uint256"
        },
        {
          "internalType": "string",
          "name": "bloodType",
          "type": "string"
        },
        {
          "internalType": "string",
          "name": "allergies",
          "type": "string"
        },
        {
          "internalType": "string",
          "name": "walletAddress",
          "type": "string"
        },
        {
          "internalType": "string",
          "name": "password",
          "type": "string"
        }
      ],
      "stateMutability": "view",
      "type": "function"
    },
    {
      "inputs": [
        {
          "internalType": "string",
          "name": "_fullName",
          "type": "string"
        },
        {
          "internalType": "string",
          "name": "_gender",
          "type": "string"
        },
        {
          "internalType": "uint256",
          "name": "_age",
          "type": "uint256"
        },
        {
          "internalType": "uint256",
          "name": "_weight",
          "type": "uint256"
        },
        {
          "internalType": "uint256",
          "name": "_height",
          "type": "uint256"
        },
        {
          "internalType": "string",
          "name": "_bloodType",
          "type": "string"
        },
        {
          "internalType": "string",
          "name": "_allergies",
          "type": "string"
        },
        {
          "internalType": "string",
          "name": "_patientAddress",
          "type": "string"
        },
        {
          "internalType": "string",
          "name": "_password",
          "type": "string"
        },
        {
          "internalType": "string",
          "name": "_encryptionKey",
          "type": "string"
        }
      ],
      "name": "registerPatient",
      "outputs": [],
      "stateMutability": "nonpayable",
      "type": "function"
    },
    {
      "inputs": [
        {
          "internalType": "string",
          "name": "_walletAddress",
          "type": "string"
        },
        {
          "internalType": "string",
          "name": "_patientAddress",
          "type": "string"
        }
      ],
      "name": "grantAccess",
      "outputs": [],
      "stateMutability": "nonpayable",
      "type": "function"
    },
    {
      "inputs": [
        {
          "internalType": "string",
          "name": "_walletAddress",
          "type": "string"
        },
        {
          "internalType": "string",
          "name": "_patientAddress",
          "type": "string"
        }
      ],
      "name": "revokeAccess",
      "outputs": [],
      "stateMutability": "nonpayable",
      "type": "function"
    },
    {
      "inputs": [
        {
          "internalType": "string",
          "name": "_patientAddress",
          "type": "string"
        }
      ],
      "name": "getPatientInfo",
      "outputs": [
        {
          "internalType": "string",
          "name": "fullName",
          "type": "string"
        },
        {
          "internalType": "string",
          "name": "gender",
          "type": "string"
        },
        {
          "internalType": "uint256",
          "name": "age",
          "type": "uint256"
        },
        {
          "internalType": "uint256",
          "name": "weight",
          "type": "uint256"
        },
        {
          "internalType": "uint256",
          "name": "height",
          "type": "uint256"
        },
        {
          "internalType": "string",
          "name": "bloodType",
          "type": "string"
        },
        {
          "internalType": "string",
          "name": "allergies",
          "type": "string"
        },
        {
          "internalType": "string",
          "name": "password",
          "type": "string"
        }
      ],
      "stateMutability": "view",
      "type": "function"
    },
    {
      "inputs": [
        {
          "internalType": "string",
          "name": "_fullName",
          "type": "string"
        },
        {
          "internalType": "string",
          "name": "_gender",
          "type": "string"
        },
        {
          "internalType": "uint256",
          "name": "_age",
          "type": "uint256"
        },
        {
          "internalType": "uint256",
          "name": "_weight",
          "type": "uint256"
        },
        {
          "internalType": "uint256",
          "name": "_height",
          "type": "uint256"
        },
        {
          "internalType": "string",
          "name": "_bloodType",
          "type": "string"
        },
        {
          "internalType": "string",
          "name": "_allergies",
          "type": "string"
        },
        {
          "internalType": "string",
          "name": "_patientAddress",
          "type": "string"
        }
      ],
      "name": "updatePatientDetails",
      "outputs": [],
      "stateMutability": "nonpayable",
      "type": "function"
    },
    {
      "inputs": [
        {
          "internalType": "string",
          "name": "_patientAddress",
          "type": "string"
        },
        {
          "internalType": "string",
          "name": "_ipfsHash",
          "type": "string"
        }
      ],
      "name": "addMedicalRecord",
      "outputs": [],
      "stateMutability": "nonpayable",
      "type": "function"
    },
    {
      "inputs": [
        {
          "internalType": "string",
          "name": "_patientAddress",
          "type": "string"
        }
      ],
      "name": "getPatientRecords",
      "outputs": [
        {
          "internalType": "string[]",
          "name": "",
          "type": "string[]"
        }
      ],
      "stateMutability": "view",
      "type": "function"
    }
  ],
  "bytecode": "0x60806040523480156200001157600080fd5b506040516200240b3803806200240b83398181016040528101906200003791906200012b565b81600160006101000a81548173ffffffffffffffffffffffffffffffffffffffff021916908373ffffffffffffffffffffffffffffffffffffffff16021790555080600260006101000a81548173ffffffffffffffffffffffffffffffffffffffff021916908373ffffffffffffffffffffffffffffffffffffffff160217905550505062000172565b600080fd5b600073ffffffffffffffffffffffffffffffffffffffff82169050919050565b6000620000f382620000c6565b9050919050565b6200010581620000e6565b81146200011157600080fd5b50565b6000815190506200012581620000fa565b92915050565b60008060408385031215620001455762000144620000c1565b5b6000620001558582860162000114565b9250506020620001688582860162000114565b9150509250929050565b61228980620001826000396000f3fe608060405234801561001057600080fd5b506004361061009e5760003560e01c8063c6009d8411610066578063c6009d841461015e578063cb9b859f14610198578063e5953a45146101b6578063e976d831146101d2578063f23876e9146101ee5761009e565b8063241f3144146100a35780635cd40af5146100bf57806368cdafb3146100ef578063817f8ca514610126578063ba5a100314610142575b600080fd5b6100bd60048036038101906100b89190611469565b61020c565b005b6100d960048036038101906100d491906114e1565b610323565b6040516100e6919061166b565b60405180910390f35b610109600480360381019061010491906114e1565b610473565b60405161011d9897969594939291906116f0565b60405180910390f35b610140600480360381019061013b9190611469565b6107ed565b005b61015c600480360381019061015791906117bd565b6109e0565b005b610178600480360381019061017391906114e1565b610c93565b60405161018f9b9a9998979695949392919061197b565b60405180910390f35b6101a06110c8565b6040516101ad9190611a98565b60405180910390f35b6101d060048036038101906101cb9190611469565b6110ee565b005b6101ec60048036038101906101e79190611ab3565b6111ea565b005b6101f66112e9565b6040516102039190611c54565b60405180910390f35b8060008160405161021d9190611cab565b908152602001604051809103902060000160009054906101000a900460ff1661027b576040517f08c379a000000000000000000000000000000000000000000000000000000000815260040161027290611d0e565b60405180910390fd5b6000808360405161028c9190611cab565b9081526020016040518091039020600201846040516102ab9190611cab565b908152602001604051809103902060006101000a81548160ff0219169083151502179055503373ffffffffffffffffffffffffffffffffffffffff167f51cbcaaca6ae26944c6280c966a07b04ca5c6766d82ca497ded152579431468d846040516103169190611d2e565b60405180910390a2505050565b6060600080836040516103369190611cab565b908152602001604051809103902090508060000160009054906101000a900460ff16610397576040517f08c379a000000000000000000000000000000000000000000000000000000000815260040161038e90611dc2565b60405180910390fd5b80600101805480602002602001604051908101604052809291908181526020016000905b828210156104675783829060005260206000200180546103da90611e11565b80601f016020809104026020016040519081016040528092919081815260200182805461040690611e11565b80156104535780601f1061042857610100808354040283529160200191610453565b820191906000526020600020905b81548152906001019060200180831161043657829003601f168201915b5050505050815260200190600101906103bb565b50505050915050919050565b606080600080600060608060606000808a6040516104919190611cab565b908152602001604051809103902090508060000160009054906101000a900460ff166104f2576040517f08c379a00000000000000000000000000000000000000000000000000000000081526004016104e990611e8e565b60405180910390fd5b80600401816005018260060154836007015484600801548560090186600a0187600c0187805461052190611e11565b80601f016020809104026020016040519081016040528092919081815260200182805461054d90611e11565b801561059a5780601f1061056f5761010080835404028352916020019161059a565b820191906000526020600020905b81548152906001019060200180831161057d57829003601f168201915b505050505097508680546105ad90611e11565b80601f01602080910402602001604051908101604052809291908181526020018280546105d990611e11565b80156106265780601f106105fb57610100808354040283529160200191610626565b820191906000526020600020905b81548152906001019060200180831161060957829003601f168201915b5050505050965082805461063990611e11565b80601f016020809104026020016040519081016040528092919081815260200182805461066590611e11565b80156106b25780601f10610687576101008083540402835291602001916106b2565b820191906000526020600020905b81548152906001019060200180831161069557829003601f168201915b505050505092508180546106c590611e11565b80601f01602080910402602001604051908101604052809291908181526020018280546106f190611e11565b801561073e5780601f106107135761010080835404028352916020019161073e565b820191906000526020600020905b81548152906001019060200180831161072157829003601f168201915b5050505050915080805461075190611e11565b80601f016020809104026020016040519081016040528092919081815260200182805461077d90611e11565b80156107ca5780601f1061079f576101008083540402835291602001916107ca565b820191906000526020600020905b8154815290600101906020018083116107ad57829003601f168201915b505050505090509850985098509850985098509850985050919395975091939597565b806000816040516107fe9190611cab565b908152602001604051809103902060000160009054906101000a900460ff1661085c576040517f08c379a000000000000000000000000000000000000000000000000000000000815260040161085390611d0e565b60405180910390fd5b600160009054906101000a900473ffffffffffffffffffffffffffffffffffffffff1673ffffffffffffffffffffffffffffffffffffffff166377fc3e36846040518263ffffffff1660e01b81526004016108b79190611d2e565b602060405180830381865afa1580156108d4573d6000803e3d6000fd5b505050506040513d601f19601f820116820180604052508101906108f89190611eda565b610937576040517f08c379a000000000000000000000000000000000000000000000000000000000815260040161092e90611f53565b60405180910390fd5b60016000836040516109499190611cab565b9081526020016040518091039020600201846040516109689190611cab565b908152602001604051809103902060006101000a81548160ff0219169083151502179055503373ffffffffffffffffffffffffffffffffffffffff167f883d542f167dfc5f47e8bf1532c171025ed0e4c59c1126c7f61749fa21976a45846040516109d39190611d2e565b60405180910390a2505050565b6000836040516109f09190611cab565b908152602001604051809103902060000160009054906101000a900460ff1615610a4f576040517f08c379a0000000000000000000000000000000000000000000000000000000008152600401610a4690611fbf565b60405180910390fd5b6001600084604051610a619190611cab565b908152602001604051809103902060000160006101000a81548160ff02191690831515021790555089600084604051610a9a9190611cab565b90815260200160405180910390206004019081610ab79190612181565b5088600084604051610ac99190611cab565b90815260200160405180910390206005019081610ae69190612181565b5087600084604051610af89190611cab565b90815260200160405180910390206006018190555086600084604051610b1e9190611cab565b90815260200160405180910390206007018190555085600084604051610b449190611cab565b90815260200160405180910390206008018190555084600084604051610b6a9190611cab565b90815260200160405180910390206009019081610b879190612181565b5083600084604051610b999190611cab565b9081526020016040518091039020600a019081610bb69190612181565b5082600084604051610bc89190611cab565b9081526020016040518091039020600b019081610be59190612181565b5081600084604051610bf79190611cab565b9081526020016040518091039020600c019081610c149190612181565b5080600084604051610c269190611cab565b90815260200160405180910390206003019081610c439190612181565b503373ffffffffffffffffffffffffffffffffffffffff167fc9fa2003fca4ce0dfc8cb0deae32266b715536df6685365b05b5be96ede8e49c60405160405180910390a250505050505050505050565b6000818051602081018201805184825260208301602085012081835280955050505050506000915090508060000160009054906101000a900460ff1690806003018054610cdf90611e11565b80601f0160208091040260200160405190810160405280929190818152602001828054610d0b90611e11565b8015610d585780601f10610d2d57610100808354040283529160200191610d58565b820191906000526020600020905b815481529060010190602001808311610d3b57829003601f168201915b505050505090806004018054610d6d90611e11565b80601f0160208091040260200160405190810160405280929190818152602001828054610d9990611e11565b8015610de65780601f10610dbb57610100808354040283529160200191610de6565b820191906000526020600020905b815481529060010190602001808311610dc957829003601f168201915b505050505090806005018054610dfb90611e11565b80601f0160208091040260200160405190810160405280929190818152602001828054610e2790611e11565b8015610e745780601f10610e4957610100808354040283529160200191610e74565b820191906000526020600020905b815481529060010190602001808311610e5757829003601f168201915b505050505090806006015490806007015490806008015490806009018054610e9b90611e11565b80601f0160208091040260200160405190810160405280929190818152602001828054610ec790611e11565b8015610f145780601f10610ee957610100808354040283529160200191610f14565b820191906000526020600020905b815481529060010190602001808311610ef757829003601f168201915b50505050509080600a018054610f2990611e11565b80601f0160208091040260200160405190810160405280929190818152602001828054610f5590611e11565b8015610fa25780601f10610f7757610100808354040283529160200191610fa2565b820191906000526020600020905b815481529060010190602001808311610f8557829003601f168201915b50505050509080600b018054610fb790611e11565b80601f0160208091040260200160405190810160405280929190818152602001828054610fe390611e11565b80156110305780601f1061100557610100808354040283529160200191611030565b820191906000526020600020905b81548152906001019060200180831161101357829003601f168201915b50505050509080600c01805461104590611e11565b80601f016020809104026020016040519081016040528092919081815260200182805461107190611e11565b80156110be5780601f10611093576101008083540402835291602001916110be565b820191906000526020600020905b8154815290600101906020018083116110a157829003601f168201915b505050505090508b565b600260009054906101000a900473ffffffffffffffffffffffffffffffffffffffff1681565b600080836040516110ff9190611cab565b908152602001604051809103902090508060000160009054906101000a900460ff16611160576040517f08c379a000000000000000000000000000000000000000000000000000000000815260040161115790611dc2565b60405180910390fd5b80600101829080600181540180825580915050600190039060005260206000200160009091909190915090816111969190612181565b503373ffffffffffffffffffffffffffffffffffffffff167f44626cfec8a165f72396cc5e247c6b96279f8c205a8d07c390df7aa5806205fa836040516111dd9190611d2e565b60405180910390a2505050565b806000816040516111fb9190611cab565b908152602001604051809103902060000160009054906101000a900460ff16611259576040517f08c379a000000000000000000000000000000000000000000000000000000000815260040161125090611d0e565b60405180910390fd5b6000808360405161126a9190611cab565b908152602001604051809103902090508981600401908161128b9190612181565b508881600501908161129d9190612181565b50878160060181905550868160070181905550858160080181905550848160090190816112ca9190612181565b508381600a0190816112dc9190612181565b5050505050505050505050565b600160009054906101000a900473ffffffffffffffffffffffffffffffffffffffff1681565b6000604051905090565b600080fd5b600080fd5b600080fd5b600080fd5b6000601f19601f8301169050919050565b7f4e487b7100000000000000000000000000000000000000000000000000000000600052604160045260246000fd5b6113768261132d565b810181811067ffffffffffffffff821117156113955761139461133e565b5b80604052505050565b60006113a861130f565b90506113b4828261136d565b919050565b600067ffffffffffffffff8211156113d4576113d361133e565b5b6113dd8261132d565b9050602081019050919050565b82818337600083830152505050565b600061140c611407846113b9565b61139e565b90508281526020810184848401111561142857611427611328565b5b6114338482856113ea565b509392505050565b600082601f8301126114505761144f611323565b5b81356114608482602086016113f9565b91505092915050565b600080604083850312156114805761147f611319565b5b600083013567ffffffffffffffff81111561149e5761149d61131e565b5b6114aa8582860161143b565b925050602083013567ffffffffffffffff8111156114cb576114ca61131e565b5b6114d78582860161143b565b9150509250929050565b6000602082840312156114f7576114f6611319565b5b600082013567ffffffffffffffff8111156115155761151461131e565b5b6115218482850161143b565b91505092915050565b600081519050919050565b600082825260208201905092915050565b6000819050602082019050919050565b600081519050919050565b600082825260208201905092915050565b60005b83811015611590578082015181840152602081019050611575565b60008484015250505050565b60006115a782611556565b6115b18185611561565b93506115c1818560208601611572565b6115ca8161132d565b840191505092915050565b60006115e1838361159c565b905092915050565b6000602082019050919050565b60006116018261152a565b61160b8185611535565b93508360208202850161161d85611546565b8060005b85811015611659578484038952815161163a85826115d5565b9450611645836115e9565b925060208a01995050600181019050611621565b50829750879550505050505092915050565b6000602082019050818103600083015261168581846115f6565b905092915050565b600082825260208201905092915050565b60006116a982611556565b6116b3818561168d565b93506116c3818560208601611572565b6116cc8161132d565b840191505092915050565b6000819050919050565b6116ea816116d7565b82525050565b600061010082019050818103600083015261170b818b61169e565b9050818103602083015261171f818a61169e565b905061172e60408301896116e1565b61173b60608301886116e1565b61174860808301876116e1565b81810360a083015261175a818661169e565b905081810360c083015261176e818561169e565b905081810360e0830152611782818461169e565b90509998505050505050505050565b61179a816116d7565b81146117a557600080fd5b50565b6000813590506117b781611791565b92915050565b6000806000806000806000806000806101408b8d0312156117e1576117e0611319565b5b60008b013567ffffffffffffffff8111156117ff576117fe61131e565b5b61180b8d828e0161143b565b9a505060208b013567ffffffffffffffff81111561182c5761182b61131e565b5b6118388d828e0161143b565b99505060406118498d828e016117a8565b985050606061185a8d828e016117a8565b975050608061186b8d828e016117a8565b96505060a08b013567ffffffffffffffff81111561188c5761188b61131e565b5b6118988d828e0161143b565b95505060c08b013567ffffffffffffffff8111156118b9576118b861131e565b5b6118c58d828e0161143b565b94505060e08b013567ffffffffffffffff8111156118e6576118e561131e565b5b6118f28d828e0161143b565b9350506101008b013567ffffffffffffffff8111156119145761191361131e565b5b6119208d828e0161143b565b9250506101208b013567ffffffffffffffff8111156119425761194161131e565b5b61194e8d828e0161143b565b9150509295989b9194979a5092959850565b60008115159050919050565b61197581611960565b82525050565b600061016082019050611991600083018e61196c565b81810360208301526119a3818d61169e565b905081810360408301526119b7818c61169e565b905081810360608301526119cb818b61169e565b90506119da608083018a6116e1565b6119e760a08301896116e1565b6119f460c08301886116e1565b81810360e0830152611a06818761169e565b9050818103610100830152611a1b818661169e565b9050818103610120830152611a30818561169e565b9050818103610140830152611a45818461169e565b90509c9b505050505050505050505050565b600073ffffffffffffffffffffffffffffffffffffffff82169050919050565b6000611a8282611a57565b9050919050565b611a9281611a77565b82525050565b6000602082019050611aad6000830184611a89565b92915050565b600080600080600080600080610100898b031215611ad457611ad3611319565b5b600089013567ffffffffffffffff811115611af257611af161131e565b5b611afe8b828c0161143b565b985050602089013567ffffffffffffffff811115611b1f57611b1e61131e565b5b611b2b8b828c0161143b565b9750506040611b3c8b828c016117a8565b9650506060611b4d8b828c016117a8565b9550506080611b5e8b828c016117a8565b94505060a089013567ffffffffffffffff811115611b7f57611b7e61131e565b5b611b8b8b828c0161143b565b93505060c089013567ffffffffffffffff811115611bac57611bab61131e565b5b611bb88b828c0161143b565b92505060e089013567ffffffffffffffff811115611bd957611bd861131e565b5b611be58b828c0161143b565b9150509295985092959890939650565b6000819050919050565b6000611c1a611c15611c1084611a57565b611bf5565b611a57565b9050919050565b6000611c2c82611bff565b9050919050565b6000611c3e82611c21565b9050919050565b611c4e81611c33565b82525050565b6000602082019050611c696000830184611c45565b92915050565b600081905092915050565b6000611c8582611556565b611c8f8185611c6f565b9350611c9f818560208601611572565b80840191505092915050565b6000611cb78284611c7a565b915081905092915050565b7f4e6f74206120726567697374657265642070617469656e740000000000000000600082015250565b6000611cf860188361168d565b9150611d0382611cc2565b602082019050919050565b60006020820190508181036000830152611d2781611ceb565b9050919050565b60006020820190508181036000830152611d48818461169e565b905092915050565b7f4e6f7420617574686f72697a656420746f20616464206d65646963616c20726560008201527f636f726400000000000000000000000000000000000000000000000000000000602082015250565b6000611dac60248361168d565b9150611db782611d50565b604082019050919050565b60006020820190508181036000830152611ddb81611d9f565b9050919050565b7f4e487b7100000000000000000000000000000000000000000000000000000000600052602260045260246000fd5b60006002820490506001821680611e2957607f821691505b602082108103611e3c57611e3b611de2565b5b50919050565b7f50617469656e74206e6f74207265676973746572656400000000000000000000600082015250565b6000611e7860168361168d565b9150611e8382611e42565b602082019050919050565b60006020820190508181036000830152611ea781611e6b565b9050919050565b611eb781611960565b8114611ec257600080fd5b50565b600081519050611ed481611eae565b92915050565b600060208284031215611ef057611eef611319565b5b6000611efe84828501611ec5565b91505092915050565b7f446f63746f72206e6f7420726567697374657265640000000000000000000000600082015250565b6000611f3d60158361168d565b9150611f4882611f07565b602082019050919050565b60006020820190508181036000830152611f6c81611f30565b9050919050565b7f50617469656e7420616c72656164792072656769737465726564000000000000600082015250565b6000611fa9601a8361168d565b9150611fb482611f73565b602082019050919050565b60006020820190508181036000830152611fd881611f9c565b9050919050565b60008190508160005260206000209050919050565b60006020601f8301049050919050565b600082821b905092915050565b6000600883026120417fffffffffffffffffffffffffffffffffffffffffffffffffffffffffffffffff82612004565b61204b8683612004565b95508019841693508086168417925050509392505050565b600061207e612079612074846116d7565b611bf5565b6116d7565b9050919050565b6000819050919050565b61209883612063565b6120ac6120a482612085565b848454612011565b825550505050565b600090565b6120c16120b4565b6120cc81848461208f565b505050565b5b818110156120f0576120e56000826120b9565b6001810190506120d2565b5050565b601f8211156121355761210681611fdf565b61210f84611ff4565b8101602085101561211e578190505b61213261212a85611ff4565b8301826120d1565b50505b505050565b600082821c905092915050565b60006121586000198460080261213a565b1980831691505092915050565b60006121718383612147565b9150826002028217905092915050565b61218a82611556565b67ffffffffffffffff8111156121a3576121a261133e565b5b6121ad8254611e11565b6121b88282856120f4565b600060209050601f8311600181146121eb57600084156121d9578287015190505b6121e38582612165565b86555061224b565b601f1984166121f986611fdf565b60005b82811015612221578489015182556001820191506020850194506020810190506121fc565b8683101561223e578489015161223a601f891682612147565b8355505b6001600288020188555050505b50505050505056fea2646970667358221220d11f36a9f591bb6a2bc32ba2f2e62e08644821ec27dbd2a91caa48c6ca38b6ca64736f6c63430008130033",
  "immutableReferences": {},
  "source": "// SPDX-License-Identifier: MIT\n\npragma solidity ^0.8.19;\n\nimport \"./IPatientRecords.sol\";\nimport \"./DoctorContract.sol\";\n\ncontract PatientContract {\n    using IPatientRecords for IPatientRecords.Patient;\n\n    mapping(string => IPatientRecords.Patient) public patients;\n\n    DoctorContract public doctorContract;\n    address public auditContractAddress;\n\n    event PatientRegistered(address indexed patientAddress);\n    event RecordAdded(address indexed patient, string ipfsHash);\n    event AccessGranted(address indexed patient, string doctor);\n    event AccessRevoked(address indexed patient, string doctor);\n    \n    constructor(address _doctorContractAddress, address _auditContractAddress) {\n        doctorContract = DoctorContract(_doctorContractAddress);\n        auditContractAddress = _auditContractAddress;\n    }\n\n    modifier onlyRegisteredPatient(string memory _patientAddress) {\n        require(patients[_patientAddress].isRegistered, \"Not a registered patient\");\n        _;\n    }\n\n    modifier onlyAuthorizedDoctor(string memory _patientAddress, string memory _walletAddress) {\n        require(doctorContract.isDoctorRegistered(_walletAddress), \"Not a registered doctor\");\n        require(patients[_patientAddress].authorizedDoctors[_walletAddress], \"Not authorized for this patient\");\n        _;\n    }\n\n    function registerPatient(\n        string memory _fullName,\n        string memory _gender,\n        uint _age,\n        uint _weight,\n        uint _height,\n        string memory _bloodType,\n        string memory _allergies,\n        string memory _patientAddress,\n        string memory _password,\n        string memory _encryptionKey\n    ) public {\n        require(!patients[_patientAddress].isRegistered, \"Patient already registered\");\n\n        patients[_patientAddress].isRegistered = true;\n        patients[_patientAddress].fullName = _fullName;\n        patients[_patientAddress].gender = _gender;\n        patients[_patientAddress].age = _age;\n        patients[_patientAddress].weight = _weight;\n        patients[_patientAddress].height = _height;\n        patients[_patientAddress].bloodType = _bloodType;\n        patients[_patientAddress].allergies = _allergies;\n        patients[_patientAddress].walletAddress = _patientAddress;\n        patients[_patientAddress].password = _password;\n        patients[_patientAddress].encryptionKey = _encryptionKey;\n\n        emit PatientRegistered(msg.sender);\n    }\n\n    function grantAccess(string memory _walletAddress,string memory _patientAddress) public onlyRegisteredPatient(_patientAddress) {\n        require(doctorContract.isDoctorRegistered(_walletAddress), \"Doctor not registered\");\n        patients[_patientAddress].authorizedDoctors[_walletAddress] = true;\n        emit AccessGranted(msg.sender , _walletAddress);\n    }\n\n    function revokeAccess(string memory _walletAddress,string memory _patientAddress) public onlyRegisteredPatient(_patientAddress) {\n        patients[_patientAddress].authorizedDoctors[_walletAddress] = false;\n        emit AccessRevoked(msg.sender , _walletAddress);\n    }\n\n\n    \n\n   function getPatientInfo(string memory _patientAddress)\n    public\n    view\n    returns (\n        string memory fullName,\n        string memory gender,\n        uint age,\n        uint weight,\n        uint height,\n        string memory bloodType,\n        string memory allergies,\n        string memory password\n    )\n    {\n    IPatientRecords.Patient storage patient = patients[_patientAddress];\n    require(patient.isRegistered, \"Patient not registered\");\n    return (\n        patient.fullName,\n        patient.gender,\n        patient.age,\n        patient.weight,\n        patient.height,\n        patient.bloodType,\n        patient.allergies,\n        patient.password\n    );\n    }\n\n    function updatePatientDetails(\n        string memory _fullName,\n        string memory _gender,\n        uint _age,\n        uint _weight,\n        uint _height,\n        string memory _bloodType,\n        string memory _allergies,\n        string memory _patientAddress\n    ) public onlyRegisteredPatient(_patientAddress){\n       IPatientRecords.Patient storage patient = patients[_patientAddress];\n        patient.fullName = _fullName;\n        patient.gender = _gender;\n        patient.age = _age;\n        patient.weight = _weight;\n        patient.height = _height;\n        patient.bloodType = _bloodType;\n        patient.allergies = _allergies;\n        \n    }\n    \n\n    function addMedicalRecord(\n        string memory _patientAddress,\n        string memory _ipfsHash\n    ) public {\n        IPatientRecords.Patient storage patient = patients[_patientAddress];\n        require(\n            patient.isRegistered,\n            \"Not authorized to add medical record\"\n        );\n        \n        \n        patient.recordHashes.push(_ipfsHash);\n\n        emit RecordAdded(msg.sender, _ipfsHash);\n    }\n    \n    function getPatientRecords(string memory _patientAddress) \n    public \n    view \n    returns (string[] memory) \n    {\n        IPatientRecords.Patient storage patient = patients[_patientAddress];\n         require(\n            patient.isRegistered,\n            \"Not authorized to add medical record\"\n        );\n        \n        \n        return patient.recordHashes;\n    }\n\n\n}\n\n\n",
  "sourcePath": "C:\\Users\\Hanane\\Desktop\\medical-record\\contracts\\PatientContract.sol",
  "compiler": {
    "name": "solc",
    "version": "0.8.19+commit.7dd6d404.Emscripten.clang"
  },
  "schemaVersion": "3.4.16",
  "updatedAt": "2024-12-16T19:35:32.338Z",
  "devdoc": {
    "kind": "dev",
    "methods": {},
    "version": 1
  },
  "userdoc": {
    "kind": "user",
    "methods": {},
    "version": 1
  }
}