{
  "contractName": "PatientContract",
  "abi": [
    {
      "inputs": [
        {
          "internalType": "address",
          "name": "_doctorContractAddress",
          "type": "address"
        },
        {
          "internalType": "address",
          "name": "_auditContractAddress",
          "type": "address"
        }
      ],
      "stateMutability": "nonpayable",
      "type": "constructor"
    },
    {
      "anonymous": false,
      "inputs": [
        {
          "indexed": true,
          "internalType": "address",
          "name": "patient",
          "type": "address"
        },
        {
          "indexed": true,
          "internalType": "address",
          "name": "doctor",
          "type": "address"
        }
      ],
      "name": "AccessGranted",
      "type": "event"
    },
    {
      "anonymous": false,
      "inputs": [
        {
          "indexed": true,
          "internalType": "address",
          "name": "patient",
          "type": "address"
        },
        {
          "indexed": true,
          "internalType": "address",
          "name": "doctor",
          "type": "address"
        }
      ],
      "name": "AccessRevoked",
      "type": "event"
    },
    {
      "anonymous": false,
      "inputs": [
        {
          "indexed": true,
          "internalType": "address",
          "name": "patientAddress",
          "type": "address"
        }
      ],
      "name": "PatientRegistered",
      "type": "event"
    },
    {
      "anonymous": false,
      "inputs": [
        {
          "indexed": true,
          "internalType": "address",
          "name": "patient",
          "type": "address"
        },
        {
          "indexed": false,
          "internalType": "string",
          "name": "ipfsHash",
          "type": "string"
        },
        {
          "indexed": true,
          "internalType": "address",
          "name": "doctor",
          "type": "address"
        }
      ],
      "name": "RecordAdded",
      "type": "event"
    },
    {
      "inputs": [],
      "name": "auditContractAddress",
      "outputs": [
        {
          "internalType": "address",
          "name": "",
          "type": "address"
        }
      ],
      "stateMutability": "view",
      "type": "function",
      "constant": true
    },
    {
      "inputs": [],
      "name": "doctorContract",
      "outputs": [
        {
          "internalType": "contract DoctorContract",
          "name": "",
          "type": "address"
        }
      ],
      "stateMutability": "view",
      "type": "function",
      "constant": true
    },
    {
      "inputs": [
        {
          "internalType": "address",
          "name": "",
          "type": "address"
        },
        {
          "internalType": "string",
          "name": "",
          "type": "string"
        }
      ],
      "name": "patientRecords",
      "outputs": [
        {
          "internalType": "string",
          "name": "ipfsHash",
          "type": "string"
        },
        {
          "internalType": "string",
          "name": "encryptedData",
          "type": "string"
        },
        {
          "internalType": "uint256",
          "name": "timestamp",
          "type": "uint256"
        },
        {
          "internalType": "address",
          "name": "doctor",
          "type": "address"
        }
      ],
      "stateMutability": "view",
      "type": "function",
      "constant": true
    },
    {
      "inputs": [
        {
          "internalType": "address",
          "name": "",
          "type": "address"
        }
      ],
      "name": "patients",
      "outputs": [
        {
          "internalType": "bool",
          "name": "isRegistered",
          "type": "bool"
        },
        {
          "internalType": "string",
          "name": "encryptionKey",
          "type": "string"
        }
      ],
      "stateMutability": "view",
      "type": "function",
      "constant": true
    },
    {
      "inputs": [
        {
          "internalType": "string",
          "name": "_encryptionKey",
          "type": "string"
        }
      ],
      "name": "registerPatient",
      "outputs": [],
      "stateMutability": "nonpayable",
      "type": "function"
    },
    {
      "inputs": [
        {
          "internalType": "address",
          "name": "doctorAddress",
          "type": "address"
        }
      ],
      "name": "grantAccess",
      "outputs": [],
      "stateMutability": "nonpayable",
      "type": "function"
    },
    {
      "inputs": [
        {
          "internalType": "address",
          "name": "doctorAddress",
          "type": "address"
        }
      ],
      "name": "revokeAccess",
      "outputs": [],
      "stateMutability": "nonpayable",
      "type": "function"
    },
    {
      "inputs": [
        {
          "internalType": "address",
          "name": "patientAddress",
          "type": "address"
        },
        {
          "internalType": "string",
          "name": "ipfsHash",
          "type": "string"
        },
        {
          "internalType": "string",
          "name": "encryptedData",
          "type": "string"
        }
      ],
      "name": "addMedicalRecord",
      "outputs": [],
      "stateMutability": "nonpayable",
      "type": "function"
    },
    {
      "inputs": [
        {
          "internalType": "address",
          "name": "patientAddress",
          "type": "address"
        }
      ],
      "name": "getPatientRecords",
      "outputs": [
        {
          "internalType": "string[]",
          "name": "",
          "type": "string[]"
        }
      ],
      "stateMutability": "view",
      "type": "function",
      "constant": true
    },
    {
      "inputs": [
        {
          "internalType": "address",
          "name": "patientAddress",
          "type": "address"
        },
        {
          "internalType": "string",
          "name": "ipfsHash",
          "type": "string"
        }
      ],
      "name": "getMedicalRecordDetails",
      "outputs": [
        {
          "components": [
            {
              "internalType": "string",
              "name": "ipfsHash",
              "type": "string"
            },
            {
              "internalType": "string",
              "name": "encryptedData",
              "type": "string"
            },
            {
              "internalType": "uint256",
              "name": "timestamp",
              "type": "uint256"
            },
            {
              "internalType": "address",
              "name": "doctor",
              "type": "address"
            }
          ],
          "internalType": "struct PatientContract.ExtendedMedicalRecord",
          "name": "",
          "type": "tuple"
        }
      ],
      "stateMutability": "view",
      "type": "function",
      "constant": true
    },
    {
      "inputs": [
        {
          "internalType": "address",
          "name": "patientAddress",
          "type": "address"
        }
      ],
      "name": "getPatientEncryptionKey",
      "outputs": [
        {
          "internalType": "string",
          "name": "",
          "type": "string"
        }
      ],
      "stateMutability": "view",
      "type": "function",
      "constant": true
    }
  ],
  "bytecode": "0x60806040523480156200001157600080fd5b50604051620024893803806200248983398181016040528101906200003791906200012b565b81600260006101000a81548173ffffffffffffffffffffffffffffffffffffffff021916908373ffffffffffffffffffffffffffffffffffffffff16021790555080600360006101000a81548173ffffffffffffffffffffffffffffffffffffffff021916908373ffffffffffffffffffffffffffffffffffffffff160217905550505062000172565b600080fd5b600073ffffffffffffffffffffffffffffffffffffffff82169050919050565b6000620000f382620000c6565b9050919050565b6200010581620000e6565b81146200011157600080fd5b50565b6000815190506200012581620000fa565b92915050565b60008060408385031215620001455762000144620000c1565b5b6000620001558582860162000114565b9250506020620001688582860162000114565b9150509250929050565b61230780620001826000396000f3fe608060405234801561001057600080fd5b50600436106100a95760003560e01c806372ba55471161007157806372ba55471461018b57806385e68531146101be578063869c9eaf146101da578063aa0ced90146101f6578063cb9b859f14610212578063f23876e914610230576100a9565b80630869cfbc146100ae5780630ae5e739146100df57806312bd2e30146100fb57806318bd48471461012b5780636d82b1461461015b575b600080fd5b6100c860048036038101906100c3919061152e565b61024e565b6040516100d6929190611606565b60405180910390f35b6100f960048036038101906100f4919061152e565b610307565b005b6101156004803603810190610110919061152e565b610564565b6040516101229190611636565b60405180910390f35b6101456004803603810190610140919061152e565b610738565b6040516101529190611764565b60405180910390f35b610175600480360381019061017091906118bb565b610953565b60405161018291906119a9565b60405180910390f35b6101a560048036038101906101a091906118bb565b610c4e565b6040516101b594939291906119e9565b60405180910390f35b6101d860048036038101906101d3919061152e565b610dd1565b005b6101f460048036038101906101ef9190611a3c565b610f53565b005b610210600480360381019061020b9190611a85565b61109a565b005b61021a611432565b6040516102279190611b10565b60405180910390f35b610238611458565b6040516102459190611b8a565b60405180910390f35b60006020528060005260406000206000915090508060000160009054906101000a900460ff169080600301805461028490611bd4565b80601f01602080910402602001604051908101604052809291908181526020018280546102b090611bd4565b80156102fd5780601f106102d2576101008083540402835291602001916102fd565b820191906000526020600020905b8154815290600101906020018083116102e057829003601f168201915b5050505050905082565b6000803373ffffffffffffffffffffffffffffffffffffffff1673ffffffffffffffffffffffffffffffffffffffff16815260200190815260200160002060000160009054906101000a900460ff16610395576040517f08c379a000000000000000000000000000000000000000000000000000000000815260040161038c90611c51565b60405180910390fd5b600260009054906101000a900473ffffffffffffffffffffffffffffffffffffffff1673ffffffffffffffffffffffffffffffffffffffff166378550390826040518263ffffffff1660e01b81526004016103f09190611b10565b602060405180830381865afa15801561040d573d6000803e3d6000fd5b505050506040513d601f19601f820116820180604052508101906104319190611c9d565b610470576040517f08c379a000000000000000000000000000000000000000000000000000000000815260040161046790611d16565b60405180910390fd5b60016000803373ffffffffffffffffffffffffffffffffffffffff1673ffffffffffffffffffffffffffffffffffffffff16815260200190815260200160002060020160008373ffffffffffffffffffffffffffffffffffffffff1673ffffffffffffffffffffffffffffffffffffffff16815260200190815260200160002060006101000a81548160ff0219169083151502179055508073ffffffffffffffffffffffffffffffffffffffff163373ffffffffffffffffffffffffffffffffffffffff167f9f520b3bfc56d06f7065d10b4683b3f57ac8895d5026cd176dee95ce1454cb8d60405160405180910390a350565b60608173ffffffffffffffffffffffffffffffffffffffff163373ffffffffffffffffffffffffffffffffffffffff16148061062857506000808373ffffffffffffffffffffffffffffffffffffffff1673ffffffffffffffffffffffffffffffffffffffff16815260200190815260200160002060020160003373ffffffffffffffffffffffffffffffffffffffff1673ffffffffffffffffffffffffffffffffffffffff16815260200190815260200160002060009054906101000a900460ff165b610667576040517f08c379a000000000000000000000000000000000000000000000000000000000815260040161065e90611da8565b60405180910390fd5b6000808373ffffffffffffffffffffffffffffffffffffffff1673ffffffffffffffffffffffffffffffffffffffff16815260200190815260200160002060030180546106b390611bd4565b80601f01602080910402602001604051908101604052809291908181526020018280546106df90611bd4565b801561072c5780601f106107015761010080835404028352916020019161072c565b820191906000526020600020905b81548152906001019060200180831161070f57829003601f168201915b50505050509050919050565b60608173ffffffffffffffffffffffffffffffffffffffff163373ffffffffffffffffffffffffffffffffffffffff1614806107fc57506000808373ffffffffffffffffffffffffffffffffffffffff1673ffffffffffffffffffffffffffffffffffffffff16815260200190815260200160002060020160003373ffffffffffffffffffffffffffffffffffffffff1673ffffffffffffffffffffffffffffffffffffffff16815260200190815260200160002060009054906101000a900460ff165b61083b576040517f08c379a000000000000000000000000000000000000000000000000000000000815260040161083290611e14565b60405180910390fd5b6000808373ffffffffffffffffffffffffffffffffffffffff1673ffffffffffffffffffffffffffffffffffffffff168152602001908152602001600020600101805480602002602001604051908101604052809291908181526020016000905b828210156109485783829060005260206000200180546108bb90611bd4565b80601f01602080910402602001604051908101604052809291908181526020018280546108e790611bd4565b80156109345780601f1061090957610100808354040283529160200191610934565b820191906000526020600020905b81548152906001019060200180831161091757829003601f168201915b50505050508152602001906001019061089c565b505050509050919050565b61095b61147e565b8273ffffffffffffffffffffffffffffffffffffffff163373ffffffffffffffffffffffffffffffffffffffff161480610a1d57506000808473ffffffffffffffffffffffffffffffffffffffff1673ffffffffffffffffffffffffffffffffffffffff16815260200190815260200160002060020160003373ffffffffffffffffffffffffffffffffffffffff1673ffffffffffffffffffffffffffffffffffffffff16815260200190815260200160002060009054906101000a900460ff165b610a5c576040517f08c379a0000000000000000000000000000000000000000000000000000000008152600401610a5390611ea6565b60405180910390fd5b600160008473ffffffffffffffffffffffffffffffffffffffff1673ffffffffffffffffffffffffffffffffffffffff16815260200190815260200160002082604051610aa99190611f02565b9081526020016040518091039020604051806080016040529081600082018054610ad290611bd4565b80601f0160208091040260200160405190810160405280929190818152602001828054610afe90611bd4565b8015610b4b5780601f10610b2057610100808354040283529160200191610b4b565b820191906000526020600020905b815481529060010190602001808311610b2e57829003601f168201915b50505050508152602001600182018054610b6490611bd4565b80601f0160208091040260200160405190810160405280929190818152602001828054610b9090611bd4565b8015610bdd5780601f10610bb257610100808354040283529160200191610bdd565b820191906000526020600020905b815481529060010190602001808311610bc057829003601f168201915b50505050508152602001600282015481526020016003820160009054906101000a900473ffffffffffffffffffffffffffffffffffffffff1673ffffffffffffffffffffffffffffffffffffffff1673ffffffffffffffffffffffffffffffffffffffff1681525050905092915050565b60016020528160005260406000208180516020810182018051848252602083016020850120818352809550505050505060009150915050806000018054610c9490611bd4565b80601f0160208091040260200160405190810160405280929190818152602001828054610cc090611bd4565b8015610d0d5780601f10610ce257610100808354040283529160200191610d0d565b820191906000526020600020905b815481529060010190602001808311610cf057829003601f168201915b505050505090806001018054610d2290611bd4565b80601f0160208091040260200160405190810160405280929190818152602001828054610d4e90611bd4565b8015610d9b5780601f10610d7057610100808354040283529160200191610d9b565b820191906000526020600020905b815481529060010190602001808311610d7e57829003601f168201915b5050505050908060020154908060030160009054906101000a900473ffffffffffffffffffffffffffffffffffffffff16905084565b6000803373ffffffffffffffffffffffffffffffffffffffff1673ffffffffffffffffffffffffffffffffffffffff16815260200190815260200160002060000160009054906101000a900460ff16610e5f576040517f08c379a0000000000000000000000000000000000000000000000000000000008152600401610e5690611c51565b60405180910390fd5b60008060003373ffffffffffffffffffffffffffffffffffffffff1673ffffffffffffffffffffffffffffffffffffffff16815260200190815260200160002060020160008373ffffffffffffffffffffffffffffffffffffffff1673ffffffffffffffffffffffffffffffffffffffff16815260200190815260200160002060006101000a81548160ff0219169083151502179055508073ffffffffffffffffffffffffffffffffffffffff163373ffffffffffffffffffffffffffffffffffffffff167f825c8be24eb0df19500f63e86c29e7d0d951e73056b889b891d85e40938d9b6e60405160405180910390a350565b6000803373ffffffffffffffffffffffffffffffffffffffff1673ffffffffffffffffffffffffffffffffffffffff16815260200190815260200160002060000160009054906101000a900460ff1615610fe2576040517f08c379a0000000000000000000000000000000000000000000000000000000008152600401610fd990611f65565b60405180910390fd5b60008060003373ffffffffffffffffffffffffffffffffffffffff1673ffffffffffffffffffffffffffffffffffffffff168152602001908152602001600020905060018160000160006101000a81548160ff021916908315150217905550818160030190816110529190612127565b503373ffffffffffffffffffffffffffffffffffffffff167fc9fa2003fca4ce0dfc8cb0deae32266b715536df6685365b05b5be96ede8e49c60405160405180910390a25050565b82600260009054906101000a900473ffffffffffffffffffffffffffffffffffffffff1673ffffffffffffffffffffffffffffffffffffffff166378550390336040518263ffffffff1660e01b81526004016110f69190611b10565b602060405180830381865afa158015611113573d6000803e3d6000fd5b505050506040513d601f19601f820116820180604052508101906111379190611c9d565b611176576040517f08c379a000000000000000000000000000000000000000000000000000000000815260040161116d90612245565b60405180910390fd5b6000808273ffffffffffffffffffffffffffffffffffffffff1673ffffffffffffffffffffffffffffffffffffffff16815260200190815260200160002060020160003373ffffffffffffffffffffffffffffffffffffffff1673ffffffffffffffffffffffffffffffffffffffff16815260200190815260200160002060009054906101000a900460ff16611241576040517f08c379a0000000000000000000000000000000000000000000000000000000008152600401611238906122b1565b60405180910390fd5b6000808573ffffffffffffffffffffffffffffffffffffffff1673ffffffffffffffffffffffffffffffffffffffff168152602001908152602001600020600101839080600181540180825580915050600190039060005260206000200160009091909190915090816112b49190612127565b5060405180608001604052808481526020018381526020014281526020013373ffffffffffffffffffffffffffffffffffffffff16815250600160008673ffffffffffffffffffffffffffffffffffffffff1673ffffffffffffffffffffffffffffffffffffffff168152602001908152602001600020846040516113399190611f02565b9081526020016040518091039020600082015181600001908161135c9190612127565b5060208201518160010190816113729190612127565b506040820151816002015560608201518160030160006101000a81548173ffffffffffffffffffffffffffffffffffffffff021916908373ffffffffffffffffffffffffffffffffffffffff1602179055509050503373ffffffffffffffffffffffffffffffffffffffff168473ffffffffffffffffffffffffffffffffffffffff167f0162e5f82d0f9f6c8f00cc90a44c2fe43acd1f1da0641215282171672daad6fa856040516114249190611636565b60405180910390a350505050565b600360009054906101000a900473ffffffffffffffffffffffffffffffffffffffff1681565b600260009054906101000a900473ffffffffffffffffffffffffffffffffffffffff1681565b6040518060800160405280606081526020016060815260200160008152602001600073ffffffffffffffffffffffffffffffffffffffff1681525090565b6000604051905090565b600080fd5b600080fd5b600073ffffffffffffffffffffffffffffffffffffffff82169050919050565b60006114fb826114d0565b9050919050565b61150b816114f0565b811461151657600080fd5b50565b60008135905061152881611502565b92915050565b600060208284031215611544576115436114c6565b5b600061155284828501611519565b91505092915050565b60008115159050919050565b6115708161155b565b82525050565b600081519050919050565b600082825260208201905092915050565b60005b838110156115b0578082015181840152602081019050611595565b60008484015250505050565b6000601f19601f8301169050919050565b60006115d882611576565b6115e28185611581565b93506115f2818560208601611592565b6115fb816115bc565b840191505092915050565b600060408201905061161b6000830185611567565b818103602083015261162d81846115cd565b90509392505050565b6000602082019050818103600083015261165081846115cd565b905092915050565b600081519050919050565b600082825260208201905092915050565b6000819050602082019050919050565b600082825260208201905092915050565b60006116a082611576565b6116aa8185611684565b93506116ba818560208601611592565b6116c3816115bc565b840191505092915050565b60006116da8383611695565b905092915050565b6000602082019050919050565b60006116fa82611658565b6117048185611663565b93508360208202850161171685611674565b8060005b85811015611752578484038952815161173385826116ce565b945061173e836116e2565b925060208a0199505060018101905061171a565b50829750879550505050505092915050565b6000602082019050818103600083015261177e81846116ef565b905092915050565b600080fd5b600080fd5b7f4e487b7100000000000000000000000000000000000000000000000000000000600052604160045260246000fd5b6117c8826115bc565b810181811067ffffffffffffffff821117156117e7576117e6611790565b5b80604052505050565b60006117fa6114bc565b905061180682826117bf565b919050565b600067ffffffffffffffff82111561182657611825611790565b5b61182f826115bc565b9050602081019050919050565b82818337600083830152505050565b600061185e6118598461180b565b6117f0565b90508281526020810184848401111561187a5761187961178b565b5b61188584828561183c565b509392505050565b600082601f8301126118a2576118a1611786565b5b81356118b284826020860161184b565b91505092915050565b600080604083850312156118d2576118d16114c6565b5b60006118e085828601611519565b925050602083013567ffffffffffffffff811115611901576119006114cb565b5b61190d8582860161188d565b9150509250929050565b6000819050919050565b61192a81611917565b82525050565b611939816114f0565b82525050565b6000608083016000830151848203600086015261195c8282611695565b915050602083015184820360208601526119768282611695565b915050604083015161198b6040860182611921565b50606083015161199e6060860182611930565b508091505092915050565b600060208201905081810360008301526119c3818461193f565b905092915050565b6119d481611917565b82525050565b6119e3816114f0565b82525050565b60006080820190508181036000830152611a0381876115cd565b90508181036020830152611a1781866115cd565b9050611a2660408301856119cb565b611a3360608301846119da565b95945050505050565b600060208284031215611a5257611a516114c6565b5b600082013567ffffffffffffffff811115611a7057611a6f6114cb565b5b611a7c8482850161188d565b91505092915050565b600080600060608486031215611a9e57611a9d6114c6565b5b6000611aac86828701611519565b935050602084013567ffffffffffffffff811115611acd57611acc6114cb565b5b611ad98682870161188d565b925050604084013567ffffffffffffffff811115611afa57611af96114cb565b5b611b068682870161188d565b9150509250925092565b6000602082019050611b2560008301846119da565b92915050565b6000819050919050565b6000611b50611b4b611b46846114d0565b611b2b565b6114d0565b9050919050565b6000611b6282611b35565b9050919050565b6000611b7482611b57565b9050919050565b611b8481611b69565b82525050565b6000602082019050611b9f6000830184611b7b565b92915050565b7f4e487b7100000000000000000000000000000000000000000000000000000000600052602260045260246000fd5b60006002820490506001821680611bec57607f821691505b602082108103611bff57611bfe611ba5565b5b50919050565b7f4e6f74206120726567697374657265642070617469656e740000000000000000600082015250565b6000611c3b601883611581565b9150611c4682611c05565b602082019050919050565b60006020820190508181036000830152611c6a81611c2e565b9050919050565b611c7a8161155b565b8114611c8557600080fd5b50565b600081519050611c9781611c71565b92915050565b600060208284031215611cb357611cb26114c6565b5b6000611cc184828501611c88565b91505092915050565b7f446f63746f72206e6f7420726567697374657265640000000000000000000000600082015250565b6000611d00601583611581565b9150611d0b82611cca565b602082019050919050565b60006020820190508181036000830152611d2f81611cf3565b9050919050565b7f4e6f7420617574686f72697a656420746f207669657720656e6372797074696f60008201527f6e206b6579000000000000000000000000000000000000000000000000000000602082015250565b6000611d92602583611581565b9150611d9d82611d36565b604082019050919050565b60006020820190508181036000830152611dc181611d85565b9050919050565b7f4e6f7420617574686f72697a656420746f2076696577207265636f7264730000600082015250565b6000611dfe601e83611581565b9150611e0982611dc8565b602082019050919050565b60006020820190508181036000830152611e2d81611df1565b9050919050565b7f4e6f7420617574686f72697a656420746f2076696577207265636f726420646560008201527f7461696c73000000000000000000000000000000000000000000000000000000602082015250565b6000611e90602583611581565b9150611e9b82611e34565b604082019050919050565b60006020820190508181036000830152611ebf81611e83565b9050919050565b600081905092915050565b6000611edc82611576565b611ee68185611ec6565b9350611ef6818560208601611592565b80840191505092915050565b6000611f0e8284611ed1565b915081905092915050565b7f50617469656e7420616c72656164792072656769737465726564000000000000600082015250565b6000611f4f601a83611581565b9150611f5a82611f19565b602082019050919050565b60006020820190508181036000830152611f7e81611f42565b9050919050565b60008190508160005260206000209050919050565b60006020601f8301049050919050565b600082821b905092915050565b600060088302611fe77fffffffffffffffffffffffffffffffffffffffffffffffffffffffffffffffff82611faa565b611ff18683611faa565b95508019841693508086168417925050509392505050565b600061202461201f61201a84611917565b611b2b565b611917565b9050919050565b6000819050919050565b61203e83612009565b61205261204a8261202b565b848454611fb7565b825550505050565b600090565b61206761205a565b612072818484612035565b505050565b5b818110156120965761208b60008261205f565b600181019050612078565b5050565b601f8211156120db576120ac81611f85565b6120b584611f9a565b810160208510156120c4578190505b6120d86120d085611f9a565b830182612077565b50505b505050565b600082821c905092915050565b60006120fe600019846008026120e0565b1980831691505092915050565b600061211783836120ed565b9150826002028217905092915050565b61213082611576565b67ffffffffffffffff81111561214957612148611790565b5b6121538254611bd4565b61215e82828561209a565b600060209050601f831160018114612191576000841561217f578287015190505b612189858261210b565b8655506121f1565b601f19841661219f86611f85565b60005b828110156121c7578489015182556001820191506020850194506020810190506121a2565b868310156121e457848901516121e0601f8916826120ed565b8355505b6001600288020188555050505b505050505050565b7f4e6f742061207265676973746572656420646f63746f72000000000000000000600082015250565b600061222f601783611581565b915061223a826121f9565b602082019050919050565b6000602082019050818103600083015261225e81612222565b9050919050565b7f4e6f7420617574686f72697a656420666f7220746869732070617469656e7400600082015250565b600061229b601f83611581565b91506122a682612265565b602082019050919050565b600060208201905081810360008301526122ca8161228e565b905091905056fea264697066735822122087f5916e30be822bb3fc64ef3dc1530cbae6c1f62bf542e51df48bf80e91f70c64736f6c63430008130033",
  "immutableReferences": {},
  "source": "// SPDX-License-Identifier: MIT\n\npragma solidity ^0.8.0;\n\nimport \"./IPatientRecords.sol\";\nimport \"./DoctorContract.sol\";\n\ncontract PatientContract {\n    using IPatientRecords for IPatientRecords.Patient;\n\n    struct ExtendedMedicalRecord {\n        string ipfsHash;\n        string encryptedData;\n        uint256 timestamp;\n        address doctor;\n    }\n\n    mapping(address => IPatientRecords.Patient) public patients;\n    mapping(address => mapping(string => ExtendedMedicalRecord)) public patientRecords;\n    DoctorContract public doctorContract;\n    address public auditContractAddress;\n\n    event PatientRegistered(address indexed patientAddress);\n    event RecordAdded(address indexed patient, string ipfsHash, address indexed doctor);\n    event AccessGranted(address indexed patient, address indexed doctor);\n    event AccessRevoked(address indexed patient, address indexed doctor);\n\n    constructor(address _doctorContractAddress, address _auditContractAddress) {\n        doctorContract = DoctorContract(_doctorContractAddress);\n        auditContractAddress = _auditContractAddress;\n    }\n\n    modifier onlyRegisteredPatient() {\n        require(patients[msg.sender].isRegistered, \"Not a registered patient\");\n        _;\n    }\n\n    modifier onlyAuthorizedDoctor(address patientAddress) {\n        require(doctorContract.isDoctorRegistered(msg.sender), \"Not a registered doctor\");\n        require(patients[patientAddress].authorizedDoctors[msg.sender], \"Not authorized for this patient\");\n        _;\n    }\n\n    function registerPatient(string memory _encryptionKey) public {\n        require(!patients[msg.sender].isRegistered, \"Patient already registered\");\n\n        IPatientRecords.Patient storage newPatient = patients[msg.sender];\n        newPatient.isRegistered = true;\n        newPatient.encryptionKey = _encryptionKey;\n\n        emit PatientRegistered(msg.sender);\n    }\n\n    function grantAccess(address doctorAddress) public onlyRegisteredPatient {\n        require(doctorContract.isDoctorRegistered(doctorAddress), \"Doctor not registered\");\n        patients[msg.sender].authorizedDoctors[doctorAddress] = true;\n        emit AccessGranted(msg.sender, doctorAddress);\n    }\n\n    function revokeAccess(address doctorAddress) public onlyRegisteredPatient {\n        patients[msg.sender].authorizedDoctors[doctorAddress] = false;\n        emit AccessRevoked(msg.sender, doctorAddress);\n    }\n\n    function addMedicalRecord(\n        address patientAddress,\n        string memory ipfsHash,\n        string memory encryptedData\n    ) public onlyAuthorizedDoctor(patientAddress) {\n        // Store the record hash in the patient's array\n        patients[patientAddress].recordHashes.push(ipfsHash);\n\n        // Store the extended record information\n        patientRecords[patientAddress][ipfsHash] = ExtendedMedicalRecord({\n            ipfsHash: ipfsHash,\n            encryptedData: encryptedData,\n            timestamp: block.timestamp,\n            doctor: msg.sender\n        });\n\n        emit RecordAdded(patientAddress, ipfsHash, msg.sender);\n    }\n\n    function getPatientRecords(address patientAddress)\n    public\n    view\n    returns (string[] memory)\n    {\n        require(\n            msg.sender == patientAddress ||\n            patients[patientAddress].authorizedDoctors[msg.sender],\n            \"Not authorized to view records\"\n        );\n        return patients[patientAddress].recordHashes;\n    }\n\n    function getMedicalRecordDetails(\n        address patientAddress,\n        string memory ipfsHash\n    )\n    public\n    view\n    returns (ExtendedMedicalRecord memory)\n    {\n        require(\n            msg.sender == patientAddress ||\n            patients[patientAddress].authorizedDoctors[msg.sender],\n            \"Not authorized to view record details\"\n        );\n        return patientRecords[patientAddress][ipfsHash];\n    }\n\n    function getPatientEncryptionKey(address patientAddress)\n    public\n    view\n    returns (string memory)\n    {\n        require(\n            msg.sender == patientAddress ||\n            patients[patientAddress].authorizedDoctors[msg.sender],\n            \"Not authorized to view encryption key\"\n        );\n        return patients[patientAddress].encryptionKey;\n    }\n}\n",
  "sourcePath": "/home/hafdaoui/Desktop/blockchain/project-fin-module/medical-record-blockchain/contracts/PatientContract.sol",
  "compiler": {
    "name": "solc",
    "version": "0.8.19+commit.7dd6d404.Emscripten.clang"
  },
  "schemaVersion": "3.4.16",
  "updatedAt": "2024-12-05T15:44:32.823Z",
  "networkType": "ethereum",
  "devdoc": {
    "kind": "dev",
    "methods": {},
    "version": 1
  },
  "userdoc": {
    "kind": "user",
    "methods": {},
    "version": 1
  }
}