{
  "contractName": "PatientContract",
  "abi": [
    {
      "inputs": [
        {
          "internalType": "address",
          "name": "_doctorContractAddress",
          "type": "address"
        },
        {
          "internalType": "address",
          "name": "_auditContractAddress",
          "type": "address"
        }
      ],
      "stateMutability": "nonpayable",
      "type": "constructor"
    },
    {
      "anonymous": false,
      "inputs": [
        {
          "indexed": true,
          "internalType": "address",
          "name": "patient",
          "type": "address"
        },
        {
          "indexed": false,
          "internalType": "string",
          "name": "doctor",
          "type": "string"
        }
      ],
      "name": "AccessGranted",
      "type": "event"
    },
    {
      "anonymous": false,
      "inputs": [
        {
          "indexed": true,
          "internalType": "address",
          "name": "patient",
          "type": "address"
        },
        {
          "indexed": false,
          "internalType": "string",
          "name": "doctor",
          "type": "string"
        }
      ],
      "name": "AccessRevoked",
      "type": "event"
    },
    {
      "anonymous": false,
      "inputs": [
        {
          "indexed": true,
          "internalType": "address",
          "name": "patientAddress",
          "type": "address"
        }
      ],
      "name": "PatientRegistered",
      "type": "event"
    },
    {
      "anonymous": false,
      "inputs": [
        {
          "indexed": true,
          "internalType": "address",
          "name": "patient",
          "type": "address"
        },
        {
          "indexed": false,
          "internalType": "string",
          "name": "ipfsHash",
          "type": "string"
        }
      ],
      "name": "RecordAdded",
      "type": "event"
    },
    {
      "inputs": [],
      "name": "auditContractAddress",
      "outputs": [
        {
          "internalType": "address",
          "name": "",
          "type": "address"
        }
      ],
      "stateMutability": "view",
      "type": "function"
    },
    {
      "inputs": [],
      "name": "doctorContract",
      "outputs": [
        {
          "internalType": "contract DoctorContract",
          "name": "",
          "type": "address"
        }
      ],
      "stateMutability": "view",
      "type": "function"
    },
    {
      "inputs": [
        {
          "internalType": "string",
          "name": "",
          "type": "string"
        }
      ],
      "name": "patients",
      "outputs": [
        {
          "internalType": "bool",
          "name": "isRegistered",
          "type": "bool"
        },
        {
          "internalType": "string",
          "name": "encryptionKey",
          "type": "string"
        },
        {
          "internalType": "string",
          "name": "fullName",
          "type": "string"
        },
        {
          "internalType": "string",
          "name": "gender",
          "type": "string"
        },
        {
          "internalType": "uint256",
          "name": "age",
          "type": "uint256"
        },
        {
          "internalType": "uint256",
          "name": "weight",
          "type": "uint256"
        },
        {
          "internalType": "uint256",
          "name": "height",
          "type": "uint256"
        },
        {
          "internalType": "string",
          "name": "bloodType",
          "type": "string"
        },
        {
          "internalType": "string",
          "name": "allergies",
          "type": "string"
        },
        {
          "internalType": "string",
          "name": "walletAddress",
          "type": "string"
        },
        {
          "internalType": "string",
          "name": "password",
          "type": "string"
        }
      ],
      "stateMutability": "view",
      "type": "function"
    },
    {
      "inputs": [
        {
          "internalType": "string",
          "name": "_fullName",
          "type": "string"
        },
        {
          "internalType": "string",
          "name": "_gender",
          "type": "string"
        },
        {
          "internalType": "uint256",
          "name": "_age",
          "type": "uint256"
        },
        {
          "internalType": "uint256",
          "name": "_weight",
          "type": "uint256"
        },
        {
          "internalType": "uint256",
          "name": "_height",
          "type": "uint256"
        },
        {
          "internalType": "string",
          "name": "_bloodType",
          "type": "string"
        },
        {
          "internalType": "string",
          "name": "_allergies",
          "type": "string"
        },
        {
          "internalType": "string",
          "name": "_patientAddress",
          "type": "string"
        },
        {
          "internalType": "string",
          "name": "_password",
          "type": "string"
        },
        {
          "internalType": "string",
          "name": "_encryptionKey",
          "type": "string"
        }
      ],
      "name": "registerPatient",
      "outputs": [],
      "stateMutability": "nonpayable",
      "type": "function"
    },
    {
      "inputs": [
        {
          "internalType": "string",
          "name": "_walletAddress",
          "type": "string"
        },
        {
          "internalType": "string",
          "name": "_patientAddress",
          "type": "string"
        }
      ],
      "name": "grantAccess",
      "outputs": [],
      "stateMutability": "nonpayable",
      "type": "function"
    },
    {
      "inputs": [
        {
          "internalType": "string",
          "name": "_walletAddress",
          "type": "string"
        },
        {
          "internalType": "string",
          "name": "_patientAddress",
          "type": "string"
        }
      ],
      "name": "revokeAccess",
      "outputs": [],
      "stateMutability": "nonpayable",
      "type": "function"
    },
    {
      "inputs": [
        {
          "internalType": "string",
          "name": "_patientAddress",
          "type": "string"
        }
      ],
      "name": "getPatientInfo",
      "outputs": [
        {
          "internalType": "string",
          "name": "fullName",
          "type": "string"
        },
        {
          "internalType": "string",
          "name": "gender",
          "type": "string"
        },
        {
          "internalType": "uint256",
          "name": "age",
          "type": "uint256"
        },
        {
          "internalType": "uint256",
          "name": "weight",
          "type": "uint256"
        },
        {
          "internalType": "uint256",
          "name": "height",
          "type": "uint256"
        },
        {
          "internalType": "string",
          "name": "bloodType",
          "type": "string"
        },
        {
          "internalType": "string",
          "name": "allergies",
          "type": "string"
        },
        {
          "internalType": "string",
          "name": "password",
          "type": "string"
        }
      ],
      "stateMutability": "view",
      "type": "function"
    },
    {
      "inputs": [
        {
          "internalType": "address",
          "name": "_address",
          "type": "address"
        }
      ],
      "name": "addressToString",
      "outputs": [
        {
          "internalType": "string",
          "name": "",
          "type": "string"
        }
      ],
      "stateMutability": "pure",
      "type": "function"
    },
    {
      "inputs": [
        {
          "internalType": "string",
          "name": "_fullName",
          "type": "string"
        },
        {
          "internalType": "string",
          "name": "_gender",
          "type": "string"
        },
        {
          "internalType": "uint256",
          "name": "_age",
          "type": "uint256"
        },
        {
          "internalType": "uint256",
          "name": "_weight",
          "type": "uint256"
        },
        {
          "internalType": "uint256",
          "name": "_height",
          "type": "uint256"
        },
        {
          "internalType": "string",
          "name": "_bloodType",
          "type": "string"
        },
        {
          "internalType": "string",
          "name": "_allergies",
          "type": "string"
        },
        {
          "internalType": "string",
          "name": "_patientAddress",
          "type": "string"
        }
      ],
      "name": "updatePatientDetails",
      "outputs": [],
      "stateMutability": "nonpayable",
      "type": "function"
    },
    {
      "inputs": [
        {
          "internalType": "string",
          "name": "_patientAddress",
          "type": "string"
        },
        {
          "internalType": "string",
          "name": "_ipfsHash",
          "type": "string"
        }
      ],
      "name": "addMedicalRecord",
      "outputs": [],
      "stateMutability": "nonpayable",
      "type": "function"
    },
    {
      "inputs": [
        {
          "internalType": "string",
          "name": "_patientAddress",
          "type": "string"
        },
        {
          "internalType": "string",
          "name": "_walletAddress",
          "type": "string"
        }
      ],
      "name": "getPatientRecords",
      "outputs": [
        {
          "internalType": "string[]",
          "name": "",
          "type": "string[]"
        }
      ],
      "stateMutability": "view",
      "type": "function"
    }
  ],
  "bytecode": "0x60806040523480156200001157600080fd5b50604051620029993803806200299983398181016040528101906200003791906200012b565b81600160006101000a81548173ffffffffffffffffffffffffffffffffffffffff021916908373ffffffffffffffffffffffffffffffffffffffff16021790555080600260006101000a81548173ffffffffffffffffffffffffffffffffffffffff021916908373ffffffffffffffffffffffffffffffffffffffff160217905550505062000172565b600080fd5b600073ffffffffffffffffffffffffffffffffffffffff82169050919050565b6000620000f382620000c6565b9050919050565b6200010581620000e6565b81146200011157600080fd5b50565b6000815190506200012581620000fa565b92915050565b60008060408385031215620001455762000144620000c1565b5b6000620001558582860162000114565b9250506020620001688582860162000114565b9150509250929050565b61281780620001826000396000f3fe608060405234801561001057600080fd5b50600436106100a95760003560e01c8063ba5a100311610071578063ba5a10031461017d578063c6009d8414610199578063cb9b859f146101d3578063e5953a45146101f1578063e976d8311461020d578063f23876e914610229576100a9565b8063241f3144146100ae5780635e57966d146100ca57806368cdafb3146100fa578063817f8ca514610131578063943e0bba1461014d575b600080fd5b6100c860048036038101906100c39190611816565b610247565b005b6100e460048036038101906100df91906118ec565b61035e565b6040516100f19190611998565b60405180910390f35b610114600480360381019061010f91906119ba565b610595565b604051610128989796959493929190611a1c565b60405180910390f35b61014b60048036038101906101469190611816565b61090f565b005b61016760048036038101906101629190611816565b610b02565b6040516101749190611bc9565b60405180910390f35b61019760048036038101906101929190611c17565b610cf0565b005b6101b360048036038101906101ae91906119ba565b610fa3565b6040516101ca9b9a99989796959493929190611dd5565b60405180910390f35b6101db6113d8565b6040516101e89190611ec0565b60405180910390f35b61020b60048036038101906102069190611816565b6113fe565b005b61022760048036038101906102229190611edb565b611597565b005b610231611696565b60405161023e919061207c565b60405180910390f35b8060008160405161025891906120d3565b908152602001604051809103902060000160009054906101000a900460ff166102b6576040517f08c379a00000000000000000000000000000000000000000000000000000000081526004016102ad90612136565b60405180910390fd5b600080836040516102c791906120d3565b9081526020016040518091039020600201846040516102e691906120d3565b908152602001604051809103902060006101000a81548160ff0219169083151502179055503373ffffffffffffffffffffffffffffffffffffffff167f51cbcaaca6ae26944c6280c966a07b04ca5c6766d82ca497ded152579431468d846040516103519190611998565b60405180910390a2505050565b606060008273ffffffffffffffffffffffffffffffffffffffff1660001b905060006040518060400160405280601081526020017f303132333435363738396162636465660000000000000000000000000000000081525090506000602867ffffffffffffffff8111156103d5576103d46116eb565b5b6040519080825280601f01601f1916602001820160405280156104075781602001600182028036833780820191505090505b50905060005b60148110156105895782600485600c846104279190612185565b60208110610438576104376121b9565b5b1a60f81b7effffffffffffffffffffffffffffffffffffffffffffffffffffffffffffff1916901c60f81c60ff1681518110610477576104766121b9565b5b602001015160f81c60f81b8260028361049091906121e8565b815181106104a1576104a06121b9565b5b60200101907effffffffffffffffffffffffffffffffffffffffffffffffffffffffffffff1916908160001a90535082600f60f81b85600c846104e49190612185565b602081106104f5576104f46121b9565b5b1a60f81b1660f81c60ff1681518110610511576105106121b9565b5b602001015160f81c60f81b8260028361052a91906121e8565b60016105369190612185565b81518110610547576105466121b9565b5b60200101907effffffffffffffffffffffffffffffffffffffffffffffffffffffffffffff1916908160001a90535080806105819061222a565b91505061040d565b50809350505050919050565b606080600080600060608060606000808a6040516105b391906120d3565b908152602001604051809103902090508060000160009054906101000a900460ff16610614576040517f08c379a000000000000000000000000000000000000000000000000000000000815260040161060b906122be565b60405180910390fd5b80600401816005018260060154836007015484600801548560090186600a0187600c018780546106439061230d565b80601f016020809104026020016040519081016040528092919081815260200182805461066f9061230d565b80156106bc5780601f10610691576101008083540402835291602001916106bc565b820191906000526020600020905b81548152906001019060200180831161069f57829003601f168201915b505050505097508680546106cf9061230d565b80601f01602080910402602001604051908101604052809291908181526020018280546106fb9061230d565b80156107485780601f1061071d57610100808354040283529160200191610748565b820191906000526020600020905b81548152906001019060200180831161072b57829003601f168201915b5050505050965082805461075b9061230d565b80601f01602080910402602001604051908101604052809291908181526020018280546107879061230d565b80156107d45780601f106107a9576101008083540402835291602001916107d4565b820191906000526020600020905b8154815290600101906020018083116107b757829003601f168201915b505050505092508180546107e79061230d565b80601f01602080910402602001604051908101604052809291908181526020018280546108139061230d565b80156108605780601f1061083557610100808354040283529160200191610860565b820191906000526020600020905b81548152906001019060200180831161084357829003601f168201915b505050505091508080546108739061230d565b80601f016020809104026020016040519081016040528092919081815260200182805461089f9061230d565b80156108ec5780601f106108c1576101008083540402835291602001916108ec565b820191906000526020600020905b8154815290600101906020018083116108cf57829003601f168201915b505050505090509850985098509850985098509850985050919395975091939597565b8060008160405161092091906120d3565b908152602001604051809103902060000160009054906101000a900460ff1661097e576040517f08c379a000000000000000000000000000000000000000000000000000000000815260040161097590612136565b60405180910390fd5b600160009054906101000a900473ffffffffffffffffffffffffffffffffffffffff1673ffffffffffffffffffffffffffffffffffffffff166377fc3e36846040518263ffffffff1660e01b81526004016109d99190611998565b602060405180830381865afa1580156109f6573d6000803e3d6000fd5b505050506040513d601f19601f82011682018060405250810190610a1a919061236a565b610a59576040517f08c379a0000000000000000000000000000000000000000000000000000000008152600401610a50906123e3565b60405180910390fd5b6001600083604051610a6b91906120d3565b908152602001604051809103902060020184604051610a8a91906120d3565b908152602001604051809103902060006101000a81548160ff0219169083151502179055503373ffffffffffffffffffffffffffffffffffffffff167f883d542f167dfc5f47e8bf1532c171025ed0e4c59c1126c7f61749fa21976a4584604051610af59190611998565b60405180910390a2505050565b60606000610b0f3361035e565b905083604051602001610b2291906120d3565b6040516020818303038152906040528051906020012081604051602001610b4991906120d3565b604051602081830303815290604052805190602001201480610bb25750600084604051610b7691906120d3565b908152602001604051809103902060020181604051610b9591906120d3565b908152602001604051809103902060009054906101000a900460ff165b610bf1576040517f08c379a0000000000000000000000000000000000000000000000000000000008152600401610be89061244f565b60405180910390fd5b60008085604051610c0291906120d3565b9081526020016040518091039020905080600101805480602002602001604051908101604052809291908181526020016000905b82821015610ce2578382906000526020600020018054610c559061230d565b80601f0160208091040260200160405190810160405280929190818152602001828054610c819061230d565b8015610cce5780601f10610ca357610100808354040283529160200191610cce565b820191906000526020600020905b815481529060010190602001808311610cb157829003601f168201915b505050505081526020019060010190610c36565b505050509250505092915050565b600083604051610d0091906120d3565b908152602001604051809103902060000160009054906101000a900460ff1615610d5f576040517f08c379a0000000000000000000000000000000000000000000000000000000008152600401610d56906124bb565b60405180910390fd5b6001600084604051610d7191906120d3565b908152602001604051809103902060000160006101000a81548160ff02191690831515021790555089600084604051610daa91906120d3565b90815260200160405180910390206004019081610dc7919061267d565b5088600084604051610dd991906120d3565b90815260200160405180910390206005019081610df6919061267d565b5087600084604051610e0891906120d3565b90815260200160405180910390206006018190555086600084604051610e2e91906120d3565b90815260200160405180910390206007018190555085600084604051610e5491906120d3565b90815260200160405180910390206008018190555084600084604051610e7a91906120d3565b90815260200160405180910390206009019081610e97919061267d565b5083600084604051610ea991906120d3565b9081526020016040518091039020600a019081610ec6919061267d565b5082600084604051610ed891906120d3565b9081526020016040518091039020600b019081610ef5919061267d565b5081600084604051610f0791906120d3565b9081526020016040518091039020600c019081610f24919061267d565b5080600084604051610f3691906120d3565b90815260200160405180910390206003019081610f53919061267d565b503373ffffffffffffffffffffffffffffffffffffffff167fc9fa2003fca4ce0dfc8cb0deae32266b715536df6685365b05b5be96ede8e49c60405160405180910390a250505050505050505050565b6000818051602081018201805184825260208301602085012081835280955050505050506000915090508060000160009054906101000a900460ff1690806003018054610fef9061230d565b80601f016020809104026020016040519081016040528092919081815260200182805461101b9061230d565b80156110685780601f1061103d57610100808354040283529160200191611068565b820191906000526020600020905b81548152906001019060200180831161104b57829003601f168201915b50505050509080600401805461107d9061230d565b80601f01602080910402602001604051908101604052809291908181526020018280546110a99061230d565b80156110f65780601f106110cb576101008083540402835291602001916110f6565b820191906000526020600020905b8154815290600101906020018083116110d957829003601f168201915b50505050509080600501805461110b9061230d565b80601f01602080910402602001604051908101604052809291908181526020018280546111379061230d565b80156111845780601f1061115957610100808354040283529160200191611184565b820191906000526020600020905b81548152906001019060200180831161116757829003601f168201915b5050505050908060060154908060070154908060080154908060090180546111ab9061230d565b80601f01602080910402602001604051908101604052809291908181526020018280546111d79061230d565b80156112245780601f106111f957610100808354040283529160200191611224565b820191906000526020600020905b81548152906001019060200180831161120757829003601f168201915b50505050509080600a0180546112399061230d565b80601f01602080910402602001604051908101604052809291908181526020018280546112659061230d565b80156112b25780601f10611287576101008083540402835291602001916112b2565b820191906000526020600020905b81548152906001019060200180831161129557829003601f168201915b50505050509080600b0180546112c79061230d565b80601f01602080910402602001604051908101604052809291908181526020018280546112f39061230d565b80156113405780601f1061131557610100808354040283529160200191611340565b820191906000526020600020905b81548152906001019060200180831161132357829003601f168201915b50505050509080600c0180546113559061230d565b80601f01602080910402602001604051908101604052809291908181526020018280546113819061230d565b80156113ce5780601f106113a3576101008083540402835291602001916113ce565b820191906000526020600020905b8154815290600101906020018083116113b157829003601f168201915b505050505090508b565b600260009054906101000a900473ffffffffffffffffffffffffffffffffffffffff1681565b60006114093361035e565b90508260405160200161141c91906120d3565b604051602081830303815290604052805190602001208160405160200161144391906120d3565b6040516020818303038152906040528051906020012014806114ac575060008360405161147091906120d3565b90815260200160405180910390206002018160405161148f91906120d3565b908152602001604051809103902060009054906101000a900460ff165b6114eb576040517f08c379a00000000000000000000000000000000000000000000000000000000081526004016114e2906127c1565b60405180910390fd5b600080846040516114fc91906120d3565b908152602001604051809103902090508060010183908060018154018082558091505060019003906000526020600020016000909190919091509081611542919061267d565b503373ffffffffffffffffffffffffffffffffffffffff167f44626cfec8a165f72396cc5e247c6b96279f8c205a8d07c390df7aa5806205fa846040516115899190611998565b60405180910390a250505050565b806000816040516115a891906120d3565b908152602001604051809103902060000160009054906101000a900460ff16611606576040517f08c379a00000000000000000000000000000000000000000000000000000000081526004016115fd90612136565b60405180910390fd5b6000808360405161161791906120d3565b9081526020016040518091039020905089816004019081611638919061267d565b508881600501908161164a919061267d565b5087816006018190555086816007018190555085816008018190555084816009019081611677919061267d565b508381600a019081611689919061267d565b5050505050505050505050565b600160009054906101000a900473ffffffffffffffffffffffffffffffffffffffff1681565b6000604051905090565b600080fd5b600080fd5b600080fd5b600080fd5b6000601f19601f8301169050919050565b7f4e487b7100000000000000000000000000000000000000000000000000000000600052604160045260246000fd5b611723826116da565b810181811067ffffffffffffffff82111715611742576117416116eb565b5b80604052505050565b60006117556116bc565b9050611761828261171a565b919050565b600067ffffffffffffffff821115611781576117806116eb565b5b61178a826116da565b9050602081019050919050565b82818337600083830152505050565b60006117b96117b484611766565b61174b565b9050828152602081018484840111156117d5576117d46116d5565b5b6117e0848285611797565b509392505050565b600082601f8301126117fd576117fc6116d0565b5b813561180d8482602086016117a6565b91505092915050565b6000806040838503121561182d5761182c6116c6565b5b600083013567ffffffffffffffff81111561184b5761184a6116cb565b5b611857858286016117e8565b925050602083013567ffffffffffffffff811115611878576118776116cb565b5b611884858286016117e8565b9150509250929050565b600073ffffffffffffffffffffffffffffffffffffffff82169050919050565b60006118b98261188e565b9050919050565b6118c9816118ae565b81146118d457600080fd5b50565b6000813590506118e6816118c0565b92915050565b600060208284031215611902576119016116c6565b5b6000611910848285016118d7565b91505092915050565b600081519050919050565b600082825260208201905092915050565b60005b83811015611953578082015181840152602081019050611938565b60008484015250505050565b600061196a82611919565b6119748185611924565b9350611984818560208601611935565b61198d816116da565b840191505092915050565b600060208201905081810360008301526119b2818461195f565b905092915050565b6000602082840312156119d0576119cf6116c6565b5b600082013567ffffffffffffffff8111156119ee576119ed6116cb565b5b6119fa848285016117e8565b91505092915050565b6000819050919050565b611a1681611a03565b82525050565b6000610100820190508181036000830152611a37818b61195f565b90508181036020830152611a4b818a61195f565b9050611a5a6040830189611a0d565b611a676060830188611a0d565b611a746080830187611a0d565b81810360a0830152611a86818661195f565b905081810360c0830152611a9a818561195f565b905081810360e0830152611aae818461195f565b90509998505050505050505050565b600081519050919050565b600082825260208201905092915050565b6000819050602082019050919050565b600082825260208201905092915050565b6000611b0582611919565b611b0f8185611ae9565b9350611b1f818560208601611935565b611b28816116da565b840191505092915050565b6000611b3f8383611afa565b905092915050565b6000602082019050919050565b6000611b5f82611abd565b611b698185611ac8565b935083602082028501611b7b85611ad9565b8060005b85811015611bb75784840389528151611b988582611b33565b9450611ba383611b47565b925060208a01995050600181019050611b7f565b50829750879550505050505092915050565b60006020820190508181036000830152611be38184611b54565b905092915050565b611bf481611a03565b8114611bff57600080fd5b50565b600081359050611c1181611beb565b92915050565b6000806000806000806000806000806101408b8d031215611c3b57611c3a6116c6565b5b60008b013567ffffffffffffffff811115611c5957611c586116cb565b5b611c658d828e016117e8565b9a505060208b013567ffffffffffffffff811115611c8657611c856116cb565b5b611c928d828e016117e8565b9950506040611ca38d828e01611c02565b9850506060611cb48d828e01611c02565b9750506080611cc58d828e01611c02565b96505060a08b013567ffffffffffffffff811115611ce657611ce56116cb565b5b611cf28d828e016117e8565b95505060c08b013567ffffffffffffffff811115611d1357611d126116cb565b5b611d1f8d828e016117e8565b94505060e08b013567ffffffffffffffff811115611d4057611d3f6116cb565b5b611d4c8d828e016117e8565b9350506101008b013567ffffffffffffffff811115611d6e57611d6d6116cb565b5b611d7a8d828e016117e8565b9250506101208b013567ffffffffffffffff811115611d9c57611d9b6116cb565b5b611da88d828e016117e8565b9150509295989b9194979a5092959850565b60008115159050919050565b611dcf81611dba565b82525050565b600061016082019050611deb600083018e611dc6565b8181036020830152611dfd818d61195f565b90508181036040830152611e11818c61195f565b90508181036060830152611e25818b61195f565b9050611e34608083018a611a0d565b611e4160a0830189611a0d565b611e4e60c0830188611a0d565b81810360e0830152611e60818761195f565b9050818103610100830152611e75818661195f565b9050818103610120830152611e8a818561195f565b9050818103610140830152611e9f818461195f565b90509c9b505050505050505050505050565b611eba816118ae565b82525050565b6000602082019050611ed56000830184611eb1565b92915050565b600080600080600080600080610100898b031215611efc57611efb6116c6565b5b600089013567ffffffffffffffff811115611f1a57611f196116cb565b5b611f268b828c016117e8565b985050602089013567ffffffffffffffff811115611f4757611f466116cb565b5b611f538b828c016117e8565b9750506040611f648b828c01611c02565b9650506060611f758b828c01611c02565b9550506080611f868b828c01611c02565b94505060a089013567ffffffffffffffff811115611fa757611fa66116cb565b5b611fb38b828c016117e8565b93505060c089013567ffffffffffffffff811115611fd457611fd36116cb565b5b611fe08b828c016117e8565b92505060e089013567ffffffffffffffff811115612001576120006116cb565b5b61200d8b828c016117e8565b9150509295985092959890939650565b6000819050919050565b600061204261203d6120388461188e565b61201d565b61188e565b9050919050565b600061205482612027565b9050919050565b600061206682612049565b9050919050565b6120768161205b565b82525050565b6000602082019050612091600083018461206d565b92915050565b600081905092915050565b60006120ad82611919565b6120b78185612097565b93506120c7818560208601611935565b80840191505092915050565b60006120df82846120a2565b915081905092915050565b7f4e6f74206120726567697374657265642070617469656e740000000000000000600082015250565b6000612120601883611924565b915061212b826120ea565b602082019050919050565b6000602082019050818103600083015261214f81612113565b9050919050565b7f4e487b7100000000000000000000000000000000000000000000000000000000600052601160045260246000fd5b600061219082611a03565b915061219b83611a03565b92508282019050808211156121b3576121b2612156565b5b92915050565b7f4e487b7100000000000000000000000000000000000000000000000000000000600052603260045260246000fd5b60006121f382611a03565b91506121fe83611a03565b925082820261220c81611a03565b9150828204841483151761222357612222612156565b5b5092915050565b600061223582611a03565b91507fffffffffffffffffffffffffffffffffffffffffffffffffffffffffffffffff820361226757612266612156565b5b600182019050919050565b7f50617469656e74206e6f74207265676973746572656400000000000000000000600082015250565b60006122a8601683611924565b91506122b382612272565b602082019050919050565b600060208201905081810360008301526122d78161229b565b9050919050565b7f4e487b7100000000000000000000000000000000000000000000000000000000600052602260045260246000fd5b6000600282049050600182168061232557607f821691505b602082108103612338576123376122de565b5b50919050565b61234781611dba565b811461235257600080fd5b50565b6000815190506123648161233e565b92915050565b6000602082840312156123805761237f6116c6565b5b600061238e84828501612355565b91505092915050565b7f446f63746f72206e6f7420726567697374657265640000000000000000000000600082015250565b60006123cd601583611924565b91506123d882612397565b602082019050919050565b600060208201905081810360008301526123fc816123c0565b9050919050565b7f4e6f7420617574686f72697a656420746f2076696577207265636f7264730000600082015250565b6000612439601e83611924565b915061244482612403565b602082019050919050565b600060208201905081810360008301526124688161242c565b9050919050565b7f50617469656e7420616c72656164792072656769737465726564000000000000600082015250565b60006124a5601a83611924565b91506124b08261246f565b602082019050919050565b600060208201905081810360008301526124d481612498565b9050919050565b60008190508160005260206000209050919050565b60006020601f8301049050919050565b600082821b905092915050565b60006008830261253d7fffffffffffffffffffffffffffffffffffffffffffffffffffffffffffffffff82612500565b6125478683612500565b95508019841693508086168417925050509392505050565b600061257a61257561257084611a03565b61201d565b611a03565b9050919050565b6000819050919050565b6125948361255f565b6125a86125a082612581565b84845461250d565b825550505050565b600090565b6125bd6125b0565b6125c881848461258b565b505050565b5b818110156125ec576125e16000826125b5565b6001810190506125ce565b5050565b601f82111561263157612602816124db565b61260b846124f0565b8101602085101561261a578190505b61262e612626856124f0565b8301826125cd565b50505b505050565b600082821c905092915050565b600061265460001984600802612636565b1980831691505092915050565b600061266d8383612643565b9150826002028217905092915050565b61268682611919565b67ffffffffffffffff81111561269f5761269e6116eb565b5b6126a9825461230d565b6126b48282856125f0565b600060209050601f8311600181146126e757600084156126d5578287015190505b6126df8582612661565b865550612747565b601f1984166126f5866124db565b60005b8281101561271d578489015182556001820191506020850194506020810190506126f8565b8683101561273a5784890151612736601f891682612643565b8355505b6001600288020188555050505b505050505050565b7f4e6f7420617574686f72697a656420746f20616464206d65646963616c20726560008201527f636f726400000000000000000000000000000000000000000000000000000000602082015250565b60006127ab602483611924565b91506127b68261274f565b604082019050919050565b600060208201905081810360008301526127da8161279e565b905091905056fea26469706673582212206d859a6c589a7e55018bbb474dbf149f5b2888230018b4502f2ffd409a1d0fb764736f6c63430008130033",
  "immutableReferences": {},
  "source": "// SPDX-License-Identifier: MIT\n\npragma solidity ^0.8.19;\n\nimport \"./IPatientRecords.sol\";\nimport \"./DoctorContract.sol\";\n\ncontract PatientContract {\n    using IPatientRecords for IPatientRecords.Patient;\n\n    mapping(string => IPatientRecords.Patient) public patients;\n\n    DoctorContract public doctorContract;\n    address public auditContractAddress;\n\n    event PatientRegistered(address indexed patientAddress);\n    event RecordAdded(address indexed patient, string ipfsHash);\n    event AccessGranted(address indexed patient, string doctor);\n    event AccessRevoked(address indexed patient, string doctor);\n    \n    constructor(address _doctorContractAddress, address _auditContractAddress) {\n        doctorContract = DoctorContract(_doctorContractAddress);\n        auditContractAddress = _auditContractAddress;\n    }\n\n    modifier onlyRegisteredPatient(string memory _patientAddress) {\n        require(patients[_patientAddress].isRegistered, \"Not a registered patient\");\n        _;\n    }\n\n    modifier onlyAuthorizedDoctor(string memory _patientAddress, string memory _walletAddress) {\n        require(doctorContract.isDoctorRegistered(_walletAddress), \"Not a registered doctor\");\n        require(patients[_patientAddress].authorizedDoctors[_walletAddress], \"Not authorized for this patient\");\n        _;\n    }\n\n    function registerPatient(\n        string memory _fullName,\n        string memory _gender,\n        uint _age,\n        uint _weight,\n        uint _height,\n        string memory _bloodType,\n        string memory _allergies,\n        string memory _patientAddress,\n        string memory _password,\n        string memory _encryptionKey\n    ) public {\n        require(!patients[_patientAddress].isRegistered, \"Patient already registered\");\n\n        patients[_patientAddress].isRegistered = true;\n        patients[_patientAddress].fullName = _fullName;\n        patients[_patientAddress].gender = _gender;\n        patients[_patientAddress].age = _age;\n        patients[_patientAddress].weight = _weight;\n        patients[_patientAddress].height = _height;\n        patients[_patientAddress].bloodType = _bloodType;\n        patients[_patientAddress].allergies = _allergies;\n        patients[_patientAddress].walletAddress = _patientAddress;\n        patients[_patientAddress].password = _password;\n        patients[_patientAddress].encryptionKey = _encryptionKey;\n\n        emit PatientRegistered(msg.sender);\n    }\n\n    function grantAccess(string memory _walletAddress,string memory _patientAddress) public onlyRegisteredPatient(_patientAddress) {\n        require(doctorContract.isDoctorRegistered(_walletAddress), \"Doctor not registered\");\n        patients[_patientAddress].authorizedDoctors[_walletAddress] = true;\n        emit AccessGranted(msg.sender , _walletAddress);\n    }\n\n    function revokeAccess(string memory _walletAddress,string memory _patientAddress) public onlyRegisteredPatient(_patientAddress) {\n        patients[_patientAddress].authorizedDoctors[_walletAddress] = false;\n        emit AccessRevoked(msg.sender , _walletAddress);\n    }\n\n\n    \n\n   function getPatientInfo(string memory _patientAddress)\n    public\n    view\n    returns (\n        string memory fullName,\n        string memory gender,\n        uint age,\n        uint weight,\n        uint height,\n        string memory bloodType,\n        string memory allergies,\n        string memory password\n    )\n    {\n    IPatientRecords.Patient storage patient = patients[_patientAddress];\n    require(patient.isRegistered, \"Patient not registered\");\n    return (\n        patient.fullName,\n        patient.gender,\n        patient.age,\n        patient.weight,\n        patient.height,\n        patient.bloodType,\n        patient.allergies,\n        patient.password\n    );\n    }\n    function addressToString(address _address) public pure returns (string memory) {\n            bytes32 value = bytes32(uint256(uint160(_address)));\n            bytes memory alphabet = \"0123456789abcdef\";\n            bytes memory str = new bytes(40);\n            for (uint i = 0; i < 20; i++) {\n                str[i * 2] = alphabet[uint8(value[i + 12] >> 4)];\n                str[1 + i * 2] = alphabet[uint8(value[i + 12] & 0x0f)];\n            }\n            return string(str);\n        }\n\n    function updatePatientDetails(\n        string memory _fullName,\n        string memory _gender,\n        uint _age,\n        uint _weight,\n        uint _height,\n        string memory _bloodType,\n        string memory _allergies,\n        string memory _patientAddress\n    ) public onlyRegisteredPatient(_patientAddress){\n       IPatientRecords.Patient storage patient = patients[_patientAddress];\n        patient.fullName = _fullName;\n        patient.gender = _gender;\n        patient.age = _age;\n        patient.weight = _weight;\n        patient.height = _height;\n        patient.bloodType = _bloodType;\n        patient.allergies = _allergies;\n        \n    }\n    \n\n    function addMedicalRecord(\n        string memory _patientAddress,\n        string memory _ipfsHash\n    ) public {\n        // Convert msg.sender to string\n        string memory senderAddress = addressToString(msg.sender);\n        \n        // Check if the caller is either the patient or an authorized doctor\n        require(\n            keccak256(abi.encodePacked(senderAddress)) == keccak256(abi.encodePacked(_patientAddress)) || \n            patients[_patientAddress].authorizedDoctors[senderAddress],\n            \"Not authorized to add medical record\"\n        );\n\n        // Access the patient record and modify it\n        IPatientRecords.Patient storage patient = patients[_patientAddress];\n        \n        // Add the IPFS hash to the patient's recordHashes array\n        patient.recordHashes.push(_ipfsHash);\n\n        // Emit the event to signal a new record has been added\n        emit RecordAdded(msg.sender, _ipfsHash);\n    }\n    function getPatientRecords(string memory _patientAddress, string memory _walletAddress) \n    public \n    view \n    returns (string[] memory) \n    {\n        // Convert msg.sender to string\n        string memory senderAddress = addressToString(msg.sender);\n        \n        // Check if the caller is either the patient or an authorized doctor\n        require(\n            keccak256(abi.encodePacked(senderAddress)) == keccak256(abi.encodePacked(_patientAddress)) || \n            patients[_patientAddress].authorizedDoctors[senderAddress],\n            \"Not authorized to view records\"\n        );\n        \n        // Access the patient record and return their recordHashes\n        IPatientRecords.Patient storage patient = patients[_patientAddress];\n        return patient.recordHashes;\n    }\n\n\n}\n\n\n",
  "sourcePath": "C:\\Users\\Hanane\\Desktop\\medical-record\\contracts\\PatientContract.sol",
  "compiler": {
    "name": "solc",
    "version": "0.8.19+commit.7dd6d404.Emscripten.clang"
  },
  "schemaVersion": "3.4.16",
  "updatedAt": "2024-12-16T17:03:42.409Z",
  "devdoc": {
    "kind": "dev",
    "methods": {},
    "version": 1
  },
  "userdoc": {
    "kind": "user",
    "methods": {},
    "version": 1
  }
}